1003156892000102103161880     VW COMERCIO DE COMB. LTDA          GOIANIA                       GO62394595452010050120100531331
11AV. RIO VERDE 1020                00000.                     PARQUE AMAZONIA74840120VALDYR PEREIRA              039459545000
5033337122020233101427310     20100503GO553  0194771652T000000280135300000000000000000000000000000000000000000000000000000000N
503333712201418780203314      20100503RJ553  2146842652T000000022129400000000000000000000000000000000000000000000000000000000N
5033337122020233101427310     20100504GO553  0195601652T000000234630300000000000000000000000000000000000000000000000000000000N
5033337122020233101427310     20100507GO553  0198771652T000000304690000000000000000000000000000000000000000000000000000000000N
5033337122020233101427310     20100510GO553  0200931652T000000254685300000000000000000000000000000000000000000000000000000000N
503333712201418780203314      20100510RJ553  2132422652T000000020613600000000000000000000000000000000000000000000000000000000N
5033337122020233101427310     20100511GO553  0201831652T000000305070000000000000000000000000000000000000000000000000000000000N
5001581193000184102881480     20100512GO552  0312821652T000000005777000000000000000000000000000000000000000000000000000000000N
5033337122020233101427310     20100513GO553  0203421652T000000196695000000000000000000000000000000000000000000000000000000000N
5033337122020233101427310     20100514GO553  0203971652T000000204300700000000000000000000000000000000000000000000000000000000N
5001581193000184102881480     20100514GO551  0314811652T000000002257600000000000000000000000000000000000000000000000000000000N
5033337122020233101427310     20100517GO553  0205911652T000000254685300000000000000000000000000000000000000000000000000000000N
5008802400000122104151633     20100518GO551  0002721652T000000000980000000000000000000000000000000000000000000000000000000000N
5033337122020233101427310     20100519GO553  0207951652T000000305070000000000000000000000000000000000000000000000000000000000N
5033337122020233101427310     20100520GO553  0208611652T000000088320000000000000000000000000000000000000000000000000000000000N
5033337122020233101427310     20100521GO553  0209761652T000000196695000000000000000000000000000000000000000000000000000000000N
5033337122020233101427310     20100525GO553  0212171652T000000057990300000000000000000000000000000000000000000000000000000000N
5033337122020233101427310     20100525GO553  0212181652T000000108375000000000000000000000000000000000000000000000000000000000N
5033337122020233101427310     20100525GO553  0212191652T000000088320000000000000000000000000000000000000000000000000000000000N
503333712201418780203314      20100526RJ553  2217702652T000000017989200000000000000000000000000000000000000000000000000000000N
5033337122020233101427310     20100527GO553  0213991652T000000251929400000000000000000000000000000000000000000000000000000000N
5033337122020233101427310     20100528GO553  0214541652T000000163609400000000000000000000000000000000000000000000000000000000N
503333712201418780203314      20100529RJ553  2217692652T000000046689000000000000000000000000000000000000000000000000000000000N
5033337122020233101427310     20100531GO553  0216251652T000000251929400000000000000000000000000000000000000000000000000000000N
5001581193000184102881480     20100531GO551  0327341652T000000013026000000000000000000000000000000000000000000000000000000000N
5401581193000184551  0314811652000001130           000000120000000000098760000000000000000000000000000000000000000000000000000
5401581193000184551  0314811652000002131           000000120000000000096600000000000000000000000000000000000000000000000000000
5401581193000184551  0314811652000003289           000000100000000000030400000000000000000000000000000000000000000000000000000
5401581193000184551  0327341652000001289           000000400000000000120000000000000000000000000000000000000000000000000000000
5401581193000184551  0327341652000002293           000000060000000000834000000000000000000000000000000000000000000000000000000
5401581193000184551  0327341652000003294           000000480000000000348600000000000000000000000000000000000000000000000000000
5401581193000184552  0312821652000001106           000000120000000000100080000000000000000000000000000000000000000000000000000
5401581193000184552  0312821652000002108           000000060000000000077340000000000000000000000000000000000000000000000000000
5401581193000184552  0312821652000003129           000000120000000000086760000000000000000000000000000000000000000000000000000
5401581193000184552  0312821652000004144           000000040000000000053760000000000000000000000000000000000000000000000000000
5401581193000184552  0312821652000005146           000000120000000000102480000000000000000000000000000000000000000000000000000
5401581193000184552  0312821652000006315           000000020000000000054320000000000000000000000000000000000000000000000000000
5401581193000184552  0312821652000007317           000000030000000000102960000000000000000000000000000000000000000000000000000
5408802400000122551  0002721652000001295           000000010000000000098000000000000000000000000000000000000000000000000000000
5433337122014187553  2132422652000001210           000002400000000001574860000000000000000000000000000000000000000000000000000
5433337122014187553  2132422652000002287           000000050000000000486500000000000000000000000000000000000000000000000000000
5433337122014187553  2146842652000001229           000002400000000002212940000000000000000000000000000000000000000000000000000
5433337122014187553  2217692652000001211           000002400000000001555830000000000000000000000000000000000000000000000000000
5433337122014187553  2217692652000002287           000000080000000000860160000000000000000000000000000000000000000000000000000
5433337122014187553  2217692652000003322           000000150000000002252910000000000000000000000000000000000000000000000000000
5433337122014187553  2217702652000001224           000001200000000001798920000000000000000000000000000000000000000000000000000
5433337122020233553  01947716520000011             000050000000000005799030000000000000000000000000000000000000000000000000000
5433337122020233553  01947716520000023             000050000000000011182000000000000000000000000000000000000000000000000000000
5433337122020233553  01947716520000033             000050000000000011032500000000000000000000000000000000000000000000000000000
5433337122020233553  01956016520000011             000050000000000005799030000000000000000000000000000000000000000000000000000
5433337122020233553  01956016520000022             000100000000000017664000000000000000000000000000000000000000000000000000000
5433337122020233553  01987716520000012             000050000000000008832000000000000000000000000000000000000000000000000000000
5433337122020233553  01987716520000023             000100000000000021637000000000000000000000000000000000000000000000000000000
5433337122020233553  02009316520000011             000050000000000005799030000000000000000000000000000000000000000000000000000
5433337122020233553  02009316520000022             000050000000000008832000000000000000000000000000000000000000000000000000000
5433337122020233553  02009316520000033             000050000000000010837500000000000000000000000000000000000000000000000000000
5433337122020233553  02018316520000012             000050000000000008832000000000000000000000000000000000000000000000000000000
5433337122020233553  02018316520000023             000100000000000021675000000000000000000000000000000000000000000000000000000
5433337122020233553  02034216520000012             000050000000000008832000000000000000000000000000000000000000000000000000000
5433337122020233553  02034216520000023             000050000000000010837500000000000000000000000000000000000000000000000000000
5433337122020233553  02039716520000011             000100000000000011598070000000000000000000000000000000000000000000000000000
5433337122020233553  02039716520000022             000050000000000008832000000000000000000000000000000000000000000000000000000
5433337122020233553  02059116520000011             000050000000000005799030000000000000000000000000000000000000000000000000000
5433337122020233553  02059116520000022             000050000000000008832000000000000000000000000000000000000000000000000000000
5433337122020233553  02059116520000033             000050000000000010837500000000000000000000000000000000000000000000000000000
5433337122020233553  02079516520000012             000050000000000008832000000000000000000000000000000000000000000000000000000
5433337122020233553  02079516520000023             000100000000000021675000000000000000000000000000000000000000000000000000000
5433337122020233553  02086116520000012             000050000000000008832000000000000000000000000000000000000000000000000000000
5433337122020233553  02097616520000012             000050000000000008832000000000000000000000000000000000000000000000000000000
5433337122020233553  02097616520000023             000050000000000010837500000000000000000000000000000000000000000000000000000
5433337122020233553  02121716520000011             000050000000000005799030000000000000000000000000000000000000000000000000000
5433337122020233553  02121816520000013             000050000000000010837500000000000000000000000000000000000000000000000000000
5433337122020233553  02121916520000012             000050000000000008832000000000000000000000000000000000000000000000000000000
5433337122020233553  02139916520000011             000050000000000005523440000000000000000000000000000000000000000000000000000
5433337122020233553  02139916520000022             000050000000000008832000000000000000000000000000000000000000000000000000000
5433337122020233553  02139916520000033             000050000000000010837500000000000000000000000000000000000000000000000000000
5433337122020233553  02145416520000011             000050000000000005523440000000000000000000000000000000000000000000000000000
5433337122020233553  02145416520000023             000050000000000010837500000000000000000000000000000000000000000000000000000
5433337122020233553  02162516520000011             000050000000000005523440000000000000000000000000000000000000000000000000000
5433337122020233553  02162516520000022             000050000000000008832000000000000000000000000000000000000000000000000000000
5433337122020233553  02162516520000033             000050000000000010837500000000000000000000000000000000000000000000000000000
7520100501201005311                     ETANOL HIDRATADO COMBUSTÍVEL COMUM                   LT    000000000000000000000000000
752010050120100531106                   C 2969                                               UN    000001700000000000000000000
752010050120100531108                   C 4151                                               UN    000001700000000000000000000
752010050120100531129                   W7 MULTI 18                                          UN    000001700000000000000000000
752010050120100531130                   W7 MULTI 3/4D                                        UN    000001700000000000000000000
752010050120100531131                   W7 MULTI 3/4S                                        UN    000001700000000000000000000
752010050120100531144                   W 962                                                UN    000001700000000000000000000
752010050120100531146                   W6 MULTI 20                                          UN    000001700000000000000000000
7520100501201005312                     ÓLEO DIESEL B COMUM                                  LT    000000000000000000000000000
752010050120100531210                   F1 MASTER SL 20W 50 LT                               UN    000000000000000000000000000
752010050120100531211                   F1 SUPER LT                                          UN    000000000000000000000000000
752010050120100531224                   F1 MASTER SINTETICO 10W40                            UN    000000000000000000000000000
752010050120100531229                   F1 MASTER PLUS 15W40                                 UN    000000000000000000000000000
752010050120100531287                   EUREKA 68 BD 20LT                                    UN    000000000000000000000000000
752010050120100531289                   bosch  500                                           UN    000001700000000000000000000
752010050120100531293                   SHELL RIMULA R3 X 15W40 BD                           UN    000000000000000000000000000
752010050120100531294                   DOUPRAH ADITIVO P/RAD,ORG,12*1                       UN    000001700000000000000000000
752010050120100531295                   EXTROM                                               UN    000000000000000000000000000
7520100501201005313                     GASOLINA C ADITIVADA                                 LT    000000000000000000000000000
752010050120100531315                   WK 950/14                                            UN    000001700000000000000000000
752010050120100531317                   C 3032/1                                             UN    000001700000000000000000000
752010050120100531322                   LITHOLINE 20KG                                       UN    000000000000000000000000000
9003156892000102103161880     5000000025540000005660000000007000000000710000000075000000229900000106                         1
