1011516065000100104665734     POSTO 55                           GOIANIA                       GO62308667472010090120100930331
11RUA 55 N 1174 QD 50 LT 01         00000.                     ST AEROPORTO   74000000SOCIO OU RESPONSAVEL        006230866747
5033337122020233101427310     20100911GO553  0305751652T000000200450000000000000000000000000000000000000000000000000000000000N
5033337122020233101427310     20100911GO553  0306261652T000000060550000000000000000000000000000000000000000000000000000000000N
5033337122020233101427310     20100911GO553  0306271652T000000114165000000000000000000000000000000000000000000000000000000000N
5003903500000121103287582     20100914GO554  0084721652T000000015822200000000000000000000000000000000000000000000000000000000N
5033337122020233101427310     20100916GO553  0310321652T000000060425000000000000000000000000000000000000000000000000000000000N
5001581193000184102881480     20100916GO551  0409871652T000000007073400000000000000000000000000000000000000000000000000000000N
5033337122020233101427310     20100917GO553  0311741652T000000284985000000000000000000000000000000000000000000000000000000000N
5001581193000184102881480     20100917GO551  0410451652T000000040220800000000000000000000000000000000000000000000000000000000N
5033337122020233101427310     20100923GO553  0316211652T000000284780000000000000000000000000000000000000000000000000000000000N
5001590082000134102667870     20100923GO551  0136241652T000000024221300000000000000000000000000000000000000000000000000000000N
5001581193000184102881480     20100924GO551  0416901652T000000002090600000000000000000000000000000000000000000000000000000000N
5033337122020233101427310     20100929GO553  0320881652T000000122940000000000000000000000000000000000000000000000000000000000N
5033337122020233101427310     20100929GO553  0321171652T000000111655000000000000000000000000000000000000000000000000000000000N
5401581193000184551  040987165200000138            000001200000000000157200000000000000000000000000000000000000000000000000000
5401581193000184551  0409871652000002300           000000600000000000435750000000000000000000000000000000000000000000000000000
5401581193000184551  0409871652000003301           000000030000000000038850000000000000000000000000000000000000000000000000000
5401581193000184551  0409871652000004302           000000030000000000041100000000000000000000000000000000000000000000000000000
5401581193000184551  0409871652000005303           000000030000000000034440000000000000000000000000000000000000000000000000000
5401581193000184551  041045165200000195            000000060000000000115440000000000000000000000000000000000000000000000000000
5401581193000184551  041045165200000296            000000060000000000049500000000000000000000000000000000000000000000000000000
5401581193000184551  041045165200000397            000000060000000000095040000000000000000000000000000000000000000000000000000
5401581193000184551  041045165200000498            000000040000000000085640000000000000000000000000000000000000000000000000000
5401581193000184551  0410451652000005100           000000040000000000101080000000000000000000000000000000000000000000000000000
5401581193000184551  0410451652000006102           000000060000000000042240000000000000000000000000000000000000000000000000000
5401581193000184551  0410451652000007103           000000060000000000049860000000000000000000000000000000000000000000000000000
5401581193000184551  0410451652000008105           000000060000000000049500000000000000000000000000000000000000000000000000000
5401581193000184551  0410451652000009106           000000060000000000051780000000000000000000000000000000000000000000000000000
5401581193000184551  0410451652000010107           000000060000000000055680000000000000000000000000000000000000000000000000000
5401581193000184551  0410451652000011108           000000060000000000077340000000000000000000000000000000000000000000000000000
5401581193000184551  0410451652000012110           000000060000000000040200000000000000000000000000000000000000000000000000000
5401581193000184551  0410451652000013111           000000030000000000054810000000000000000000000000000000000000000000000000000
5401581193000184551  0410451652000014112           000000060000000000066480000000000000000000000000000000000000000000000000000
5401581193000184551  0410451652000015114           000000020000000000050660000000000000000000000000000000000000000000000000000
5401581193000184551  0410451652000016115           000000060000000000037980000000000000000000000000000000000000000000000000000
5401581193000184551  0410451652000017116           000000010000000000019370000000000000000000000000000000000000000000000000000
5401581193000184551  0410451652000018119           000000030000000000044430000000000000000000000000000000000000000000000000000
5401581193000184551  0410451652000019121           000000060000000000033720000000000000000000000000000000000000000000000000000
5401581193000184551  0410451652000020123           000000020000000000075360000000000000000000000000000000000000000000000000000
5401581193000184551  0410451652000021127           000000040000000000065840000000000000000000000000000000000000000000000000000
5401581193000184551  0410451652000022129           000000240000000000173520000000000000000000000000000000000000000000000000000
5401581193000184551  0410451652000023130           000000240000000000197760000000000000000000000000000000000000000000000000000
5401581193000184551  0410451652000024131           000000240000000000193200000000000000000000000000000000000000000000000000000
5401581193000184551  0410451652000025132           000000120000000000095760000000000000000000000000000000000000000000000000000
5401581193000184551  0410451652000026134           000000030000000000055200000000000000000000000000000000000000000000000000000
5401581193000184551  0410451652000027135           000000010000000000023650000000000000000000000000000000000000000000000000000
5401581193000184551  0410451652000028136           000000040000000000138560000000000000000000000000000000000000000000000000000
5401581193000184551  0410451652000029138           000000060000000000114600000000000000000000000000000000000000000000000000000
5401581193000184551  0410451652000030140           000000030000000000091050000000000000000000000000000000000000000000000000000
5401581193000184551  0410451652000031141           000000030000000000037650000000000000000000000000000000000000000000000000000
5401581193000184551  0410451652000032143           000000060000000000080700000000000000000000000000000000000000000000000000000
5401581193000184551  0410451652000033146           000000240000000000205200000000000000000000000000000000000000000000000000000
5401581193000184551  0410451652000034147           000000060000000000061020000000000000000000000000000000000000000000000000000
5401581193000184551  0410451652000035148           000000030000000000028560000000000000000000000000000000000000000000000000000
5401581193000184551  0410451652000036149           000000060000000000067320000000000000000000000000000000000000000000000000000
5401581193000184551  0410451652000037150           000000120000000000099960000000000000000000000000000000000000000000000000000
5401581193000184551  0410451652000038151           000000060000000000071400000000000000000000000000000000000000000000000000000
5401581193000184551  0410451652000039153           000000020000000000079040000000000000000000000000000000000000000000000000000
5401581193000184551  0410451652000040154           000000030000000000090690000000000000000000000000000000000000000000000000000
5401581193000184551  0410451652000041156           000000030000000000224040000000000000000000000000000000000000000000000000000
5401581193000184551  0410451652000042182           000000030000000000097980000000000000000000000000000000000000000000000000000
5401581193000184551  0410451652000043190           000000060000000000114300000000000000000000000000000000000000000000000000000
5401581193000184551  0410451652000044203           000000020000000000057100000000000000000000000000000000000000000000000000000
5401581193000184551  0410451652000045206           000000060000000000077280000000000000000000000000000000000000000000000000000
5401581193000184551  0410451652000046213           000000060000000000076500000000000000000000000000000000000000000000000000000
5401581193000184551  0410451652000047220           000000020000000000029060000000000000000000000000000000000000000000000000000
5401581193000184551  0410451652000048237           000000030000000000047250000000000000000000000000000000000000000000000000000
5401581193000184551  0410451652000049278           000000060000000000053580000000000000000000000000000000000000000000000000000
5401581193000184551  0410451652000050287           000000020000000000024200000000000000000000000000000000000000000000000000000
5401581193000184551  0410451652000051290           000000030000000000054000000000000000000000000000000000000000000000000000000
5401581193000184551  0416901652000001216           000000060000000000077040000000000000000000000000000000000000000000000000000
5401581193000184551  0416901652000002306           000000040000000000101120000000000000000000000000000000000000000000000000000
5401581193000184551  0416901652000003307           000000030000000000030900000000000000000000000000000000000000000000000000000
5401590082000134551  01362416520000019             000000240000000000677850000000000000000000000000000000000000000000000000000
5401590082000134551  013624165200000210            000000240000000000570830000000000000000000000000000000000000000000000000000
5401590082000134551  013624165200000311            000000120000000000483690000000000000000000000000000000000000000000000000000
5401590082000134551  013624165200000440            000000240000000000157440000000000000000000000000000000000000000000000000000
5401590082000134551  0136241652000005308           000000480000000000532320000000000000000000000000000000000000000000000000000
5403903500000121554  008472165200000141            000000480000000000507260000000000000000000000000000000000000000000000000000
5403903500000121554  008472165200000242            000000480000000000498960000000000000000000000000000000000000000000000000000
5403903500000121554  008472165200000343            000000480000000000576000000000000000000000000000000000000000000000000000000
5433337122020233553  03057516520000012             000050000000000008842000000000000000000000000000000000000000000000000000000
5433337122020233553  03057516520000023             000050000000000011203000000000000000000000000000000000000000000000000000000
5433337122020233553  03062616520000011             000050000000000006055000000000000000000000000000000000000000000000000000000
5433337122020233553  03062716520000013             000050000000000011416500000000000000000000000000000000000000000000000000000
5433337122020233553  03103216520000011             000050000000000006042500000000000000000000000000000000000000000000000000000
5433337122020233553  03117416520000011             000050000000000006042500000000000000000000000000000000000000000000000000000
5433337122020233553  03117416520000023             000100000000000022456000000000000000000000000000000000000000000000000000000
5433337122020233553  03162116520000011             000050000000000006147000000000000000000000000000000000000000000000000000000
5433337122020233553  03162116520000023             000100000000000022331000000000000000000000000000000000000000000000000000000
5433337122020233553  03208816520000011             000100000000000012294000000000000000000000000000000000000000000000000000000
5433337122020233553  03211716520000013             000050000000000011165500000000000000000000000000000000000000000000000000000
7520100901201009301                     ETANOL HIDRATADO COMBUSTIVEL COMUM                   LT    000000000000000000000000000
75201009012010093010                    BARDHAL B-12 PLUS                                    UN    000000000000000000000000000
752010090120100930100                   C 1858/1                                             UN    000001700000000000000000000
752010090120100930102                   C 2496                                               UN    000001700000000000000000000
752010090120100930103                   C 2585                                               UN    000001700000000000000000000
752010090120100930105                   C 2852/2                                             UN    000001700000000000000000000
752010090120100930106                   C 2969                                               UN    000001700000000000000000000
752010090120100930107                   C 2990                                               UN    000001700000000000000000000
752010090120100930108                   C 4151                                               UN    000001700000000000000000000
75201009012010093011                    BARDHAL B-12 TURBO DIESEL                            UN    000000000000000000000000000
752010090120100930110                   C 29108                                              UN    000001700000000000000000000
752010090120100930111                   C 37153                                              UN    000001700000000000000000000
752010090120100930112                   C 30125/1                                            UN    000001700000000000000000000
752010090120100930114                   C 15300                                              UN    000001700000000000000000000
752010090120100930115                   C 2256                                               UN    000001700000000000000000000
752010090120100930116                   C 11102                                              UN    000001700000000000000000000
752010090120100930119                   C 26168                                              UN    000001700000000000000000000
752010090120100930121                   C 1944                                               UN    000001700000000000000000000
752010090120100930123                   C 23107                                              UN    000001700000000000000000000
752010090120100930127                   HU 711/51X                                           UN    000001700000000000000000000
752010090120100930129                   W7 MULTI 18                                          UN    000001700000000000000000000
752010090120100930130                   W7 MULTI 3/4D                                        UN    000001700000000000000000000
752010090120100930131                   W7 MULTI 3/4S                                        UN    000001700000000000000000000
752010090120100930132                   W7 MULTI 20                                          UN    000001700000000000000000000
752010090120100930134                   W 711/80                                             UN    000001700000000000000000000
752010090120100930135                   W 940/81                                             UN    000001700000000000000000000
752010090120100930136                   W 1323                                               UN    000001700000000000000000000
752010090120100930138                   W 68/80                                              UN    000001700000000000000000000
752010090120100930140                   WP 928/81                                            UN    000001700000000000000000000
752010090120100930141                   W 934                                                UN    000001700000000000000000000
752010090120100930143                   W 75/2                                               UN    000001700000000000000000000
752010090120100930146                   W6 MULTI 20                                          UN    000001700000000000000000000
752010090120100930147                   WK 613/3                                             UN    000001700000000000000000000
752010090120100930148                   WK 612/7                                             UN    000001700000000000000000000
752010090120100930149                   WK 712/4                                             UN    000001700000000000000000000
752010090120100930150                   WK 58                                                UN    000001700000000000000000000
752010090120100930151                   WK 730/4                                             UN    000001700000000000000000000
752010090120100930153                   WK 842/14                                            UN    000001700000000000000000000
752010090120100930154                   WK 842/3                                             UN    000001700000000000000000000
752010090120100930156                   WK 940/35                                            UN    000001700000000000000000000
752010090120100930182                   WK 920/1                                             UN    000001700000000000000000000
752010090120100930190                   WK 612                                               UN    000001700000000000000000000
7520100901201009302                     ÓLEO DIESEL B ADITIVADO                              LT    000000000000000000000000000
752010090120100930203                   C 16197                                              UN    000001700000000000000000000
752010090120100930206                   HU 611X                                              UN    000001700000000000000000000
752010090120100930213                   C 25116                                              UN    000001700000000000000000000
752010090120100930216                   HU 711X                                              UN    000001700000000000000000000
752010090120100930220                   C 2693                                               UN    000001700000000000000000000
752010090120100930237                   C 2295/2                                             UN    000001700000000000000000000
752010090120100930278                   C 2677                                               UN    000001700000000000000000000
752010090120100930287                   W 940/18                                             UN    000000000000000000000000000
752010090120100930290                   HU 612X                                              UN    000001700000000000000000000
7520100901201009303                     GASOLINA C ADITIVADA                                 LT    000000000000000000000000000
752010090120100930300                   DOUPRAH ADT. RADIADOR                                UN    000000000000000000000000000
752010090120100930301                   CU 3448                                              UN    000001700000000000000000000
752010090120100930302                   CU 2545                                              UN    000001700000000000000000000
752010090120100930303                   CU 2882                                              UN    000001700000000000000000000
752010090120100930306                   C 2278                                               UN    000001700000000000000000000
752010090120100930307                   CU 2629                                              UN    000001700000000000000000000
752010090120100930308                   BARDHAL FLEX                                         UN    000000000000000000000000000
75201009012010093038                    LIMPA VIDROS                                         UN    000000000000000000000000000
75201009012010093040                    BARDHAL RAD CLEAN                                    UN    000000000000000000000000000
75201009012010093041                    STP FUEL                                             UN    000000000000000000000000000
75201009012010093042                    STP FLEX                                             UN    000000000000000000000000000
75201009012010093043                    STP DIESEL                                           UN    000000000000000000000000000
7520100901201009309                     BARDHAL PROLONGA                                     UN    000000000000000000000000000
75201009012010093095                    C 14200                                              UN    000001700000000000000000000
75201009012010093096                    C 1733                                               UN    000001700000000000000000000
75201009012010093097                    C 30130                                              UN    000001700000000000000000000
75201009012010093098                    C 2159                                               UN    000001700000000000000000000
9011516065000100104665734     5000000013540000007860000000007000000000710000000075000000709900000164                         1
