1003156892000102103161880     VW COMERCIO DE COMB. LTDA          GOIANIA                       GO62394595452010090120100930331
11AV. RIO VERDE 1020                00000.                     PARQUE AMAZONIA74840120.                           039459545000
5033337122020233101427310     20100901GO553  0297601652T000000171530300000000000000000000000000000000000000000000000000000000N
5033337122020233101427310     20100901GO553  2515431652T000000061493600000000000000000000000000000000000000000000000000000000N
5033337122020233101427310     20100901GO553  2515441652T000000004248000000000000000000000000000000000000000000000000000000000N
503333712201418780203314      20100902RJ553  2495532652T000000003636700000000000000000000000000000000000000000000000000000000N
503333712201418780203314      20100902RJ553  2498252652T000000017691100000000000000000000000000000000000000000000000000000000N
5033337122020233101427310     20100903GO553  0299451652T000000260595300000000000000000000000000000000000000000000000000000000N
5033337122020233101427310     20100903GO553  2524391652T000000004348400000000000000000000000000000000000000000000000000000000N
5033337122020233101427310     20100903GO553  2524411652T000000003857800000000000000000000000000000000000000000000000000000000N
5033337122020233101427310     20100906GO553  0301401652T000000171530300000000000000000000000000000000000000000000000000000000N
5033337122020233101427310     20100908GO553  0302711652T000000112030000000000000000000000000000000000000000000000000000000000N
5033337122020233101427310     20100908GO553  0303321652T000000060550300000000000000000000000000000000000000000000000000000000N
5033337122020233101427310     20100909GO553  0303851652T000000060550300000000000000000000000000000000000000000000000000000000N
5033337122020233101427310     20100909GO553  0304311652T000000112030000000000000000000000000000000000000000000000000000000000N
5033337122020233101427310     20100910GO553  0304311652T000000260910300000000000000000000000000000000000000000000000000000000N
5033337122020233101427310     20100913GO553  0306681652T000000288369200000000000000000000000000000000000000000000000000000000N
5033337122020233101427310     20100915GO553  0308891652T000000262284200000000000000000000000000000000000000000000000000000000N
5033337122020233101427310     20100917GO552  0311031652T000000224560000000000000000000000000000000000000000000000000000000000N
5033337122020233101427310     20100917GO553  0311031652T000000061674200000000000000000000000000000000000000000000000000000000N
5033337122020233101427310     20100920GO553  0313281652T000000238349300000000000000000000000000000000000000000000000000000000N
5033337122020233101427310     20100922GO553  0315181652T000000263957200000000000000000000000000000000000000000000000000000000N
5001581193000184102881480     20100922GO551  0010011652T000000000250000000000000000000000000000000000000000000000000000000000N
5033337122020233101427310     20100924GO553  0317301652T000000062722200000000000000000000000000000000000000000000000000000000N
5001590082000134ISENTO        20100924GO551  0136151652T000000003147000000000000000000000000000000000000000000000000000000000N
5001581193000184102881480     20100924GO551  0413881652T000000015537900000000000000000000000000000000000000000000000000000000N
5033337122020233101427310     20100925GO553  0317861652T000000112905000000000000000000000000000000000000000000000000000000000N
5033337122020233101427310     20100927GO553  0318701652T000000201235000000000000000000000000000000000000000000000000000000000N
5033337122020233101427310     20100928GO553  0320271652T000000062722200000000000000000000000000000000000000000000000000000000N
5033337122020233101427310     20100930GO553  0321991652T000000314140000000000000000000000000000000000000000000000000000000000N
5401581193000184551  0010011652000001334           000000010000000000025000000000000000000000000000000000000000000000000000000
5401581193000184551  0413881652000001102           000000180000000000126720000000000000000000000000000000000000000000000000000
5401581193000184551  0413881652000002106           000000060000000000050040000000000000000000000000000000000000000000000000000
5401581193000184551  0413881652000003110           000000060000000000040200000000000000000000000000000000000000000000000000000
5401581193000184551  0413881652000004129           000000120000000000086760000000000000000000000000000000000000000000000000000
5401581193000184551  0413881652000005130           000000120000000000098880000000000000000000000000000000000000000000000000000
5401581193000184551  0413881652000006132           000000120000000000095760000000000000000000000000000000000000000000000000000
5401581193000184551  0413881652000007133           000000020000000000058340000000000000000000000000000000000000000000000000000
5401581193000184551  0413881652000008136           000000040000000000138560000000000000000000000000000000000000000000000000000
5401581193000184551  0413881652000009140           000000030000000000091080000000000000000000000000000000000000000000000000000
5401581193000184551  0413881652000010146           000000120000000000102600000000000000000000000000000000000000000000000000000
5401581193000184551  0413881652000011150           000000120000000000096600000000000000000000000000000000000000000000000000000
5401581193000184551  0413881652000012294           000000600000000000435750000000000000000000000000000000000000000000000000000
5401581193000184551  0413881652000013301           000000010000000000012290000000000000000000000000000000000000000000000000000
5401581193000184551  0413881652000014302           000000010000000000036980000000000000000000000000000000000000000000000000000
5401581193000184551  0413881652000015303           000000010000000000021450000000000000000000000000000000000000000000000000000
5401581193000184551  0413881652000016311           000000010000000000012100000000000000000000000000000000000000000000000000000
5401581193000184551  0413881652000017334           000000020000000000049680000000000000000000000000000000000000000000000000000
5401590082000134551  013615165200000140            000000480000000000314700000000000000000000000000000000000000000000000000000
5433337122014187553  2495532652000001222           000000720000000000363670000000000000000000000000000000000000000000000000000
5433337122014187553  2498252652000001210           000002400000000001769110000000000000000000000000000000000000000000000000000
5433337122020233552  03110316520000023             000100000000000022456000000000000000000000000000000000000000000000000000000
5433337122020233553  02976016520000011             000050000000000006055030000000000000000000000000000000000000000000000000000
5433337122020233553  02976016520000023             000050000000000011098000000000000000000000000000000000000000000000000000000
5433337122020233553  02994516520000011             000050000000000006055030000000000000000000000000000000000000000000000000000
5433337122020233553  02994516520000022             000050000000000008906500000000000000000000000000000000000000000000000000000
5433337122020233553  02994516520000033             000050000000000011098000000000000000000000000000000000000000000000000000000
5433337122020233553  03014016520000011             000050000000000006055030000000000000000000000000000000000000000000000000000
5433337122020233553  03014016520000023             000050000000000011098000000000000000000000000000000000000000000000000000000
5433337122020233553  03027116520000013             000050000000000011203000000000000000000000000000000000000000000000000000000
5433337122020233553  03033216520000011             000050000000000006055030000000000000000000000000000000000000000000000000000
5433337122020233553  03038516520000011             000050000000000006055030000000000000000000000000000000000000000000000000000
5433337122020233553  03043116520000013             000050000000000011203000000000000000000000000000000000000000000000000000000
5433337122020233553  03043116520000021             000050000000000006055030000000000000000000000000000000000000000000000000000
5433337122020233553  03043116520000032             000050000000000008833000000000000000000000000000000000000000000000000000000
5433337122020233553  03043116520000043             000050000000000011203000000000000000000000000000000000000000000000000000000
5433337122020233553  03066816520000011             000050000000000006167420000000000000000000000000000000000000000000000000000
5433337122020233553  03066816520000023             000050000000000011228000000000000000000000000000000000000000000000000000000
5433337122020233553  03066816520000033             000050000000000011441500000000000000000000000000000000000000000000000000000
5433337122020233553  03088916520000011             000050000000000006167420000000000000000000000000000000000000000000000000000
5433337122020233553  03088916520000022             000050000000000008833000000000000000000000000000000000000000000000000000000
5433337122020233553  03088916520000033             000050000000000011228000000000000000000000000000000000000000000000000000000
5433337122020233553  03110316520000011             000050000000000006167420000000000000000000000000000000000000000000000000000
5433337122020233553  03132816520000011             000100000000000012544430000000000000000000000000000000000000000000000000000
5433337122020233553  03132816520000023             000050000000000011290500000000000000000000000000000000000000000000000000000
5433337122020233553  03151816520000011             000050000000000006272220000000000000000000000000000000000000000000000000000
5433337122020233553  03151816520000022             000050000000000008833000000000000000000000000000000000000000000000000000000
5433337122020233553  03151816520000033             000050000000000011290500000000000000000000000000000000000000000000000000000
5433337122020233553  03173016520000011             000050000000000006272220000000000000000000000000000000000000000000000000000
5433337122020233553  03178616520000013             000050000000000011290500000000000000000000000000000000000000000000000000000
5433337122020233553  03187016520000012             000050000000000008833000000000000000000000000000000000000000000000000000000
5433337122020233553  03187016520000023             000050000000000011290500000000000000000000000000000000000000000000000000000
5433337122020233553  03202716520000011             000050000000000006272220000000000000000000000000000000000000000000000000000
5433337122020233553  03219916520000012             000050000000000008833000000000000000000000000000000000000000000000000000000
5433337122020233553  03219916520000023             000100000000000022581000000000000000000000000000000000000000000000000000000
5433337122020233553  2515431652000001210           000002400000000001658560000000000000000000000000000000000000000000000000000
5433337122020233553  2515431652000002211           000003600000000002447010000000000000000000000000000000000000000000000000000
5433337122020233553  2515431652000003228           000002000000000000720950000000000000000000000000000000000000000000000000000
5433337122020233553  2515431652000004240           000002000000000000290860000000000000000000000000000000000000000000000000000
5433337122020233553  2515431652000005241           000000960000000000686470000000000000000000000000000000000000000000000000000
5433337122020233553  2515431652000006323           000000480000000000345510000000000000000000000000000000000000000000000000000
5433337122020233553  2515441652000001332           000001200000000000424800000000000000000000000000000000000000000000000000000
5433337122020233553  2524391652000001333           000000480000000000434840000000000000000000000000000000000000000000000000000
5433337122020233553  252441165200000145            000000800000000000385780000000000000000000000000000000000000000000000000000
7520100901201009301                     ETANOL HIDRATADO COMBUSTÍVEL COMUM                   LT    000000000000000000000000000
752010090120100930102                   C 2496                                               UN    000001700000000000000000000
752010090120100930106                   C 2969                                               UN    000001700000000000000000000
752010090120100930110                   C 29108                                              UN    000001700000000000000000000
752010090120100930129                   W7 MULTI 18                                          UN    000001700000000000000000000
752010090120100930130                   W7 MULTI 3/4D                                        UN    000001700000000000000000000
752010090120100930132                   W7 MULTI 20                                          UN    000001700000000000000000000
752010090120100930133                   W 67/80                                              UN    000001700000000000000000000
752010090120100930136                   W 1323                                               UN    000001700000000000000000000
752010090120100930140                   WP 928/81                                            UN    000001700000000000000000000
752010090120100930146                   W6 MULTI 20                                          UN    000001700000000000000000000
752010090120100930150                   WK 58                                                UN    000001700000000000000000000
7520100901201009302                     ÓLEO DIESEL B COMUM                                  LT    000000000000000000000000000
752010090120100930210                   F1 MASTER SL 20W 50 LT                               UN    000000000000000000000000000
752010090120100930211                   F1 SUPER LT                                          UN    000000000000000000000000000
752010090120100930222                   LITHOLINE MP 500G                                    UN    000000000000000000000000000
752010090120100930228                   F1 MASTER SL 20W50 500ML                             UN    000000000000000000000000000
752010090120100930240                   2T 200ML                                             UN    000000000000000000000000000
752010090120100930241                   BRUTUS T5 15W40                                      UN    000000000000000000000000000
752010090120100930294                   DOUPRAH ADITIVO P/RAD,ORG,12*1                       UN    000001700000000000000000000
7520100901201009303                     GASOLINA C ADITIVADA                                 LT    000000000000000000000000000
752010090120100930301                   H 12111                                              UN    000001700000000000000000000
752010090120100930302                   WK 1060/4                                            UN    000001700000000000000000000
752010090120100930303                   HU 945/2X                                            UN    000001700000000000000000000
752010090120100930311                   W 940/18                                             UN    000001700000000000000000000
752010090120100930323                   IPIRGEROL EP90 1LT                                   UN    000000000000000000000000000
752010090120100930332                   F1 SUPER SF 500ML                                    UN    000000000000000000000000000
752010090120100930333                   LITHOLINE MP 1KG                                     UN    000000000000000000000000000
752010090120100930334                   c 11127                                              un    000001700000000000000000000
75201009012010093040                    BARDHAL RAD CLEAN                                    UN    000000000000000000000000000
75201009012010093045                    DEXRON II AT 500ML                                   UN    000000000000000000000000000
9003156892000102103161880     5000000028540000006460000000007000000000710000000075000000319900000126                         1
