1025124074000160102015732     VALPOSTO COMBUSTIVEIS LTDA         GOIANIA                       GO62394595462010050120100531331
11Alameda Ricardo Paranhos          00504.                     ST Marista     74175020.                           006239459546
5033337122020233101427310     20100503GO553  0194361652T000000226305700000000000000000000000000000000000000000000000000000000N
5033337122020233101427310     20100504GO553  0195401652T000000278640300000000000000000000000000000000000000000000000000000000N
5001581193000184102881480     20100504GO551  0307811652T000000008366500000000000000000000000000000000000000000000000000000000N
5033337122020233101427310     20100505GO553  0196491652T000000256635300000000000000000000000000000000000000000000000000000000N
5033337122020233101427310     20100506GO553  0197621652T000000274360300000000000000000000000000000000000000000000000000000000N
5033337122020233101427310     20100507GO553  0198541652T000000274360300000000000000000000000000000000000000000000000000000000N
5033337122020233101427310     20100508GO553  0199761652T000000254685300000000000000000000000000000000000000000000000000000000N
5033337122020233101427310     20100510GO553  0200331652T000000224355700000000000000000000000000000000000000000000000000000000N
503333712201418780203314      20100510RJ553  2132432652T000000007454000000000000000000000000000000000000000000000000000000000N
503333712201418780203314      20100510RJ553  2164192652T000000031518600000000000000000000000000000000000000000000000000000000N
5033337122020233101427310     20100512GO553  0202201652T000000274740300000000000000000000000000000000000000000000000000000000N
503333712201418780203314      20100512RJ553  2173182652T000000004713200000000000000000000000000000000000000000000000000000000N
5033337122020233101427310     20100513GO553  0203001652T000000274740300000000000000000000000000000000000000000000000000000000N
5033337122020233101427310     20100513GO553  0203431652T000000088320000000000000000000000000000000000000000000000000000000000N
5033337122020233101427310     20100514GO553  0204191652T000000224355700000000000000000000000000000000000000000000000000000000N
5033337122020233101427310     20100517GO553  0205721652T000000274740300000000000000000000000000000000000000000000000000000000N
5033337122020233101427310     20100518GO553  0206881652T000000274740300000000000000000000000000000000000000000000000000000000N
5033337122020233101427310     20100519GO553  0207771652T000000254685300000000000000000000000000000000000000000000000000000000N
5073581753000101102615608     20100519GO552  0156241652T000000041219000000000000000000000000000000000000000000000000000000000N
5001581193000184102881480     20100519GO551  0318441652T000000006433200000000000000000000000000000000000000000000000000000000N
5033337122020233101427310     20100520GO553  0208621652T000000166365300000000000000000000000000000000000000000000000000000000N
5033337122020233101427310     20100521GO553  0209751652T000000057990300000000000000000000000000000000000000000000000000000000N
5033337122020233101427310     20100522GO553  0210701652T000000274740300000000000000000000000000000000000000000000000000000000N
5033337122020233101427310     20100525GO553  0211831652T000000274740300000000000000000000000000000000000000000000000000000000N
5033337122020233101427310     20100526GO553  0212771652T000000254685300000000000000000000000000000000000000000000000000000000N
5033337122020233101427310     20100527GO553  0213721652T000000271984400000000000000000000000000000000000000000000000000000000N
5001581193000184102881480     20100527GO551  0324671652T000000012289700000000000000000000000000000000000000000000000000000000N
5033337122020233101427310     20100528GO553  0214531652T000000055234400000000000000000000000000000000000000000000000000000000N
5033337122020233101427310     20100529GO553  0215691652T000000251929400000000000000000000000000000000000000000000000000000000N
503333712201418780203314      20100529RJ553  2230702652T000000022336800000000000000000000000000000000000000000000000000000000N
5033337122020233101427310     20100531GO553  0216381652T000000271984400000000000000000000000000000000000000000000000000000000N
5401581193000184551  03078116520000016             000000240000000000276520000000000000000000000000000000000000000000000000000
5401581193000184551  03078116520000027             000000480000000000382920000000000000000000000000000000000000000000000000000
5401581193000184551  0307811652000003147           000000090000000000088470000000000000000000000000000000000000000000000000000
5401581193000184551  0307811652000004279           000000010000000000035640000000000000000000000000000000000000000000000000000
5401581193000184551  0307811652000005283           000000020000000000053100000000000000000000000000000000000000000000000000000
5401581193000184551  0318441652000001100           000000060000000000146520000000000000000000000000000000000000000000000000000
5401581193000184551  0318441652000002112           000000120000000000128520000000000000000000000000000000000000000000000000000
5401581193000184551  0318441652000003135           000000030000000000070920000000000000000000000000000000000000000000000000000
5401581193000184551  0318441652000004150           000000180000000000144720000000000000000000000000000000000000000000000000000
5401581193000184551  0318441652000005152           000000030000000000152640000000000000000000000000000000000000000000000000000
5401581193000184551  03246716520000016             000000120000000000138260000000000000000000000000000000000000000000000000000
5401581193000184551  03246716520000027             000000480000000000382920000000000000000000000000000000000000000000000000000
5401581193000184551  032467165200000396            000000060000000000047820000000000000000000000000000000000000000000000000000
5401581193000184551  0324671652000004103           000000060000000000048240000000000000000000000000000000000000000000000000000
5401581193000184551  0324671652000005108           000000240000000000309600000000000000000000000000000000000000000000000000000
5401581193000184551  0324671652000006121           000000060000000000033720000000000000000000000000000000000000000000000000000
5401581193000184551  0324671652000007137           000000030000000000046740000000000000000000000000000000000000000000000000000
5401581193000184551  0324671652000008139           000000020000000000089180000000000000000000000000000000000000000000000000000
5401581193000184551  0324671652000009141           000000030000000000037650000000000000000000000000000000000000000000000000000
5401581193000184551  0324671652000010286           000000020000000000058540000000000000000000000000000000000000000000000000000
5401581193000184551  0324671652000011287           000000030000000000036300000000000000000000000000000000000000000000000000000
5433337122014187553  2132432652000001239           000002400000000000745400000000000000000000000000000000000000000000000000000
5433337122014187553  2164192652000001239           000002000000000000621180000000000000000000000000000000000000000000000000000
5433337122014187553  2164192652000002284           000001440000000002530680000000000000000000000000000000000000000000000000000
5433337122014187553  2173182652000001285           000001200000000000471320000000000000000000000000000000000000000000000000000
5433337122014187553  2230702652000001229           000002400000000002233680000000000000000000000000000000000000000000000000000
5433337122020233553  01943616520000011             000100000000000011598070000000000000000000000000000000000000000000000000000
5433337122020233553  01943616520000024             000050000000000011032500000000000000000000000000000000000000000000000000000
5433337122020233553  01954016520000011             000050000000000005799030000000000000000000000000000000000000000000000000000
5433337122020233553  01954016520000024             000100000000000022065000000000000000000000000000000000000000000000000000000
5433337122020233553  01964916520000011             000050000000000005799030000000000000000000000000000000000000000000000000000
5433337122020233553  01964916520000022             000050000000000008832000000000000000000000000000000000000000000000000000000
5433337122020233553  01964916520000034             000050000000000011032500000000000000000000000000000000000000000000000000000
5433337122020233553  01976216520000011             000050000000000005799030000000000000000000000000000000000000000000000000000
5433337122020233553  01976216520000024             000100000000000021637000000000000000000000000000000000000000000000000000000
5433337122020233553  01985416520000011             000050000000000005799030000000000000000000000000000000000000000000000000000
5433337122020233553  01985416520000024             000100000000000021637000000000000000000000000000000000000000000000000000000
5433337122020233553  01997616520000011             000050000000000005799030000000000000000000000000000000000000000000000000000
5433337122020233553  01997616520000022             000050000000000008832000000000000000000000000000000000000000000000000000000
5433337122020233553  01997616520000034             000050000000000010837500000000000000000000000000000000000000000000000000000
5433337122020233553  02003316520000011             000100000000000011598070000000000000000000000000000000000000000000000000000
5433337122020233553  02003316520000024             000050000000000010837500000000000000000000000000000000000000000000000000000
5433337122020233553  02022016520000011             000050000000000005799030000000000000000000000000000000000000000000000000000
5433337122020233553  02022016520000024             000100000000000021675000000000000000000000000000000000000000000000000000000
5433337122020233553  02030016520000011             000050000000000005799030000000000000000000000000000000000000000000000000000
5433337122020233553  02030016520000024             000100000000000021675000000000000000000000000000000000000000000000000000000
5433337122020233553  02034316520000012             000050000000000008832000000000000000000000000000000000000000000000000000000
5433337122020233553  02041916520000011             000100000000000011598070000000000000000000000000000000000000000000000000000
5433337122020233553  02041916520000024             000050000000000010837500000000000000000000000000000000000000000000000000000
5433337122020233553  02057216520000011             000050000000000005799030000000000000000000000000000000000000000000000000000
5433337122020233553  02057216520000024             000100000000000021675000000000000000000000000000000000000000000000000000000
5433337122020233553  02068816520000011             000050000000000005799030000000000000000000000000000000000000000000000000000
5433337122020233553  02068816520000024             000100000000000021675000000000000000000000000000000000000000000000000000000
5433337122020233553  02077716520000011             000050000000000005799030000000000000000000000000000000000000000000000000000
5433337122020233553  02077716520000022             000050000000000008832000000000000000000000000000000000000000000000000000000
5433337122020233553  02077716520000034             000050000000000010837500000000000000000000000000000000000000000000000000000
5433337122020233553  02086216520000011             000050000000000005799030000000000000000000000000000000000000000000000000000
5433337122020233553  02086216520000024             000050000000000010837500000000000000000000000000000000000000000000000000000
5433337122020233553  02097516520000011             000050000000000005799030000000000000000000000000000000000000000000000000000
5433337122020233553  02107016520000011             000050000000000005799030000000000000000000000000000000000000000000000000000
5433337122020233553  02107016520000024             000100000000000021675000000000000000000000000000000000000000000000000000000
5433337122020233553  02118316520000011             000050000000000005799030000000000000000000000000000000000000000000000000000
5433337122020233553  02118316520000024             000100000000000021675000000000000000000000000000000000000000000000000000000
5433337122020233553  02127716520000011             000050000000000005799030000000000000000000000000000000000000000000000000000
5433337122020233553  02127716520000022             000050000000000008832000000000000000000000000000000000000000000000000000000
5433337122020233553  02127716520000034             000050000000000010837500000000000000000000000000000000000000000000000000000
5433337122020233553  02137216520000011             000050000000000005523440000000000000000000000000000000000000000000000000000
5433337122020233553  02137216520000024             000100000000000021675000000000000000000000000000000000000000000000000000000
5433337122020233553  02145316520000011             000050000000000005523440000000000000000000000000000000000000000000000000000
5433337122020233553  02156916520000011             000050000000000005523440000000000000000000000000000000000000000000000000000
5433337122020233553  02156916520000022             000050000000000008832000000000000000000000000000000000000000000000000000000
5433337122020233553  02156916520000034             000050000000000010837500000000000000000000000000000000000000000000000000000
5433337122020233553  02163816520000011             000050000000000005523440000000000000000000000000000000000000000000000000000
5433337122020233553  02163816520000024             000100000000000021675000000000000000000000000000000000000000000000000000000
5473581753000101552  015624165200000121            000004800000000004121900000000000000000000000000000000000000000000000000000
7520100501201005311                     ETANOL HIDRATADO COMBUSTÍVEL COMUM                   LT    000000000000000000000000000
752010050120100531100                   C 1858/1                                             UN    000001700000000000000000000
752010050120100531103                   C 2585                                               UN    000001700000000000000000000
752010050120100531108                   C 4151                                               UN    000001700000000000000000000
752010050120100531112                   C 30125/1                                            UN    000001700000000000000000000
752010050120100531121                   C1944                                                UN    000001700000000000000000000
752010050120100531135                   W940/81                                              UN    000001700000000000000000000
752010050120100531137                   W940/1                                               UN    000001700000000000000000000
752010050120100531139                   WP928/80                                             UN    000001700000000000000000000
752010050120100531141                   W934                                                 UN    000001700000000000000000000
752010050120100531147                   WK 613/3                                             UN    000001700000000000000000000
752010050120100531150                   WK 58                                                UN    000001700000000000000000000
752010050120100531152                   WK 940/11                                            UN    000001700000000000000000000
7520100501201005312                     ÓLEO DIESEL B ADITIVADO                              LT    000000000000000000000000000
75201005012010053121                    HAV. SL LT                                           UN    000000000000000000000000000
752010050120100531229                   F1 MASTER PLUS 15W40                                 UN    000000000000000000000000000
752010050120100531239                   2T 500ML                                             UN    000000000000000000000000000
752010050120100531279                   C 23121                                              UN    000001700000000000000000000
752010050120100531283                   C 2329                                               UN    000001700000000000000000000
752010050120100531284                   F1 MASTER SINTETICO 5W40SM                           UN    000000000000000000000000000
752010050120100531285                   DEXRON 500ML                                         UN    000000000000000000000000000
752010050120100531286                   C 3324                                               un    000001700000000000000000000
752010050120100531287                   W 940/18                                             UN    000001700000000000000000000
7520100501201005314                     GASOLINA SUPER ADITIVADA                             LT    000000000000000000000000000
7520100501201005316                     GLADE AUTO SPORT APARELHO                            UN    000001700000000000000000000
7520100501201005317                     GLADE REFIL                                          UN    000001700000000000000000000
75201005012010053196                    C 1733                                               UN    000001700000000000000000000
9025124074000160102015732     5000000031540000007560000000007000000000710000000075000000279900000136                         1
