1025124074000160102015732     VALPOSTO COMBUSTIVEIS LTDA         GOIANIA                       GO62394595462010090120100930331
11Alameda Ricardo Paranhos          00504.                     ST Marista     74175020.                           006239459546
5033337122020233101427310     20100901GO553  0297581652T000000260845000000000000000000000000000000000000000000000000000000000N
5033337122020233101427310     20100901GO553  0297591652T000000060550000000000000000000000000000000000000000000000000000000000N
5033337122020233101427310     20100901GO553  2519721652T000000049756900000000000000000000000000000000000000000000000000000000N
5033337122020233101427310     20100902GO553  0298241652T000000282760000000000000000000000000000000000000000000000000000000000N
5033337122020233101427310     20100903GO553  0299221652T000000232330000000000000000000000000000000000000000000000000000000000N
5033337122020233101427310     20100904GO553  0300451652T000000282760000000000000000000000000000000000000000000000000000000000N
5033337122020233101427310     20100906GO553  0301191652T000000232330000000000000000000000000000000000000000000000000000000000N
5033337122020233101427310     20100906GO553  0301391652T000000089065000000000000000000000000000000000000000000000000000000000N
5033337122020233101427310     20100908GO553  0302641652T000000223260000000000000000000000000000000000000000000000000000000000N
5033337122020233101427310     20100908GO553  0303331652T000000121100000000000000000000000000000000000000000000000000000000000N
5033337122020233101427310     20100909GO553  0303861652T000000172830000000000000000000000000000000000000000000000000000000000N
5033337122020233101427310     20100909GO553  0304381652T000000224310000000000000000000000000000000000000000000000000000000000N
5033337122020233101427310     20100910GO553  0304751652T000000112280000000000000000000000000000000000000000000000000000000000N
5033337122020233101427310     20100910GO553  0305481652T000000060550000000000000000000000000000000000000000000000000000000000N
5033337122020233101427310     20100910GO553  0305491652T000000088420000000000000000000000000000000000000000000000000000000000N
5033337122020233101427310     20100911GO553  0305741652T000000060550000000000000000000000000000000000000000000000000000000000N
5033337122020233101427310     20100911GO553  0306281652T000000060550000000000000000000000000000000000000000000000000000000000N
5033337122020233101427310     20100913GO553  0306941652T000000174205000000000000000000000000000000000000000000000000000000000N
5033337122020233101427310     20100913GO553  0306951652T000000061675000000000000000000000000000000000000000000000000000000000N
5033337122020233101427310     20100913GO553  0307201652T000000337090000000000000000000000000000000000000000000000000000000000N
5033337122020233101427310     20100914GO553  0307901652T000000262625000000000000000000000000000000000000000000000000000000000N
5033337122020233101427310     20100915GO553  0308581652T000000235880000000000000000000000000000000000000000000000000000000000N
5033337122020233101427310     20100916GO553  0309971652T000000286485000000000000000000000000000000000000000000000000000000000N
5033337122020233101427310     20100916GO553  0310311652T000000174205000000000000000000000000000000000000000000000000000000000N
5033337122020233101427310     20100917GO553  0310901652T000000235880000000000000000000000000000000000000000000000000000000000N
5033337122020233101427310     20100918GO553  0312081652T000000262625000000000000000000000000000000000000000000000000000000000N
5033337122020233101427310     20100920GO553  0312691652T000000238595000000000000000000000000000000000000000000000000000000000N
5033337122020233101427310     20100921GO553  0313751652T000000288780000000000000000000000000000000000000000000000000000000000N
5033337122020233101427310     20100922GO553  0314821652T000000288780000000000000000000000000000000000000000000000000000000000N
5033337122020233101427310     20100923GO553  0315661652T000000264295000000000000000000000000000000000000000000000000000000000N
5033337122020233101427310     20100924GO553  0316781652T000000238595000000000000000000000000000000000000000000000000000000000N
5033337122020233101427310     20100924GO553  0317311652T000000226060000000000000000000000000000000000000000000000000000000000N
5033337122020233101427310     20100925GO553  0317851652T000000175625000000000000000000000000000000000000000000000000000000000N
5033337122020233101427310     20100927GO553  0318511652T000000238595000000000000000000000000000000000000000000000000000000000N
5033337122020233101427310     20100927GO553  0318691652T000000112905000000000000000000000000000000000000000000000000000000000N
5033337122020233101427310     20100928GO553  0319651652T000000112905000000000000000000000000000000000000000000000000000000000N
5033337122020233101427310     20100928GO551  0319661652T000000088420000000000000000000000000000000000000000000000000000000000N
5033337122020233101427310     20100928GO553  0319661652T000000113155000000000000000000000000000000000000000000000000000000000N
5033337122020233101427310     20100928GO553  0320251652T000000062720000000000000000000000000000000000000000000000000000000000N
5033337122020233101427310     20100928GO553  0320261652T000000062720000000000000000000000000000000000000000000000000000000000N
5033337122020233101427310     20100929GO553  0320871652T000000062720000000000000000000000000000000000000000000000000000000000N
5033337122020233101427310     20100929GO553  0321161652T000000226060000000000000000000000000000000000000000000000000000000000N
5033337122020233101427310     20100930GO553  0322081652T000000238595000000000000000000000000000000000000000000000000000000000N
5433337122020233551  03196616520000022             000050000000000008842000000000000000000000000000000000000000000000000000000
5433337122020233553  02975816520000012             000050000000000008906500000000000000000000000000000000000000000000000000000
5433337122020233553  02975816520000024             000050000000000011123000000000000000000000000000000000000000000000000000000
5433337122020233553  02975816520000031             000050000000000006055000000000000000000000000000000000000000000000000000000
5433337122020233553  02975916520000011             000050000000000006055000000000000000000000000000000000000000000000000000000
5433337122020233553  02982416520000011             000050000000000006055000000000000000000000000000000000000000000000000000000
5433337122020233553  02982416520000024             000050000000000011123000000000000000000000000000000000000000000000000000000
5433337122020233553  02982416520000034             000050000000000011098000000000000000000000000000000000000000000000000000000
5433337122020233553  02992216520000011             000100000000000012110000000000000000000000000000000000000000000000000000000
5433337122020233553  02992216520000024             000050000000000011123000000000000000000000000000000000000000000000000000000
5433337122020233553  03004516520000011             000050000000000006055000000000000000000000000000000000000000000000000000000
5433337122020233553  03004516520000024             000050000000000011123000000000000000000000000000000000000000000000000000000
5433337122020233553  03004516520000034             000050000000000011098000000000000000000000000000000000000000000000000000000
5433337122020233553  03011916520000011             000100000000000012110000000000000000000000000000000000000000000000000000000
5433337122020233553  03011916520000024             000050000000000011123000000000000000000000000000000000000000000000000000000
5433337122020233553  03013916520000012             000050000000000008906500000000000000000000000000000000000000000000000000000
5433337122020233553  03026416520000014             000050000000000011123000000000000000000000000000000000000000000000000000000
5433337122020233553  03026416520000024             000050000000000011203000000000000000000000000000000000000000000000000000000
5433337122020233553  03033316520000011             000100000000000012110000000000000000000000000000000000000000000000000000000
5433337122020233553  03038616520000011             000050000000000006055000000000000000000000000000000000000000000000000000000
5433337122020233553  03038616520000024             000050000000000011228000000000000000000000000000000000000000000000000000000
5433337122020233553  03043816520000014             000050000000000011228000000000000000000000000000000000000000000000000000000
5433337122020233553  03043816520000024             000050000000000011203000000000000000000000000000000000000000000000000000000
5433337122020233553  03047516520000014             000050000000000011228000000000000000000000000000000000000000000000000000000
5433337122020233553  03054816520000011             000050000000000006055000000000000000000000000000000000000000000000000000000
5433337122020233553  03054916520000012             000050000000000008842000000000000000000000000000000000000000000000000000000
5433337122020233553  03057416520000011             000050000000000006055000000000000000000000000000000000000000000000000000000
5433337122020233553  03062816520000011             000050000000000006055000000000000000000000000000000000000000000000000000000
5433337122020233553  03069416520000011             000050000000000006167500000000000000000000000000000000000000000000000000000
5433337122020233553  03069416520000024             000050000000000011253000000000000000000000000000000000000000000000000000000
5433337122020233553  03069516520000011             000050000000000006167500000000000000000000000000000000000000000000000000000
5433337122020233553  03072016520000014             000050000000000011253000000000000000000000000000000000000000000000000000000
5433337122020233553  03072016520000024             000100000000000022456000000000000000000000000000000000000000000000000000000
5433337122020233553  03079016520000011             000050000000000006167500000000000000000000000000000000000000000000000000000
5433337122020233553  03079016520000022             000050000000000008842000000000000000000000000000000000000000000000000000000
5433337122020233553  03079016520000034             000050000000000011253000000000000000000000000000000000000000000000000000000
5433337122020233553  03085816520000011             000100000000000012335000000000000000000000000000000000000000000000000000000
5433337122020233553  03085816520000024             000050000000000011253000000000000000000000000000000000000000000000000000000
5433337122020233553  03099716520000011             000050000000000006167500000000000000000000000000000000000000000000000000000
5433337122020233553  03099716520000024             000050000000000011253000000000000000000000000000000000000000000000000000000
5433337122020233553  03099716520000034             000050000000000011228000000000000000000000000000000000000000000000000000000
5433337122020233553  03103116520000014             000050000000000011253000000000000000000000000000000000000000000000000000000
5433337122020233553  03103116520000021             000050000000000006167500000000000000000000000000000000000000000000000000000
5433337122020233553  03109016520000011             000100000000000012335000000000000000000000000000000000000000000000000000000
5433337122020233553  03109016520000024             000050000000000011253000000000000000000000000000000000000000000000000000000
5433337122020233553  03120816520000011             000050000000000006167500000000000000000000000000000000000000000000000000000
5433337122020233553  03120816520000022             000050000000000008842000000000000000000000000000000000000000000000000000000
5433337122020233553  03120816520000034             000050000000000011253000000000000000000000000000000000000000000000000000000
5433337122020233553  03126916520000011             000100000000000012544000000000000000000000000000000000000000000000000000000
5433337122020233553  03126916520000024             000050000000000011315500000000000000000000000000000000000000000000000000000
5433337122020233553  03137516520000011             000050000000000006272000000000000000000000000000000000000000000000000000000
5433337122020233553  03137516520000024             000050000000000011315500000000000000000000000000000000000000000000000000000
5433337122020233553  03137516520000034             000050000000000011290500000000000000000000000000000000000000000000000000000
5433337122020233553  03148216520000011             000050000000000006272000000000000000000000000000000000000000000000000000000
5433337122020233553  03148216520000024             000050000000000011315500000000000000000000000000000000000000000000000000000
5433337122020233553  03148216520000034             000050000000000011290500000000000000000000000000000000000000000000000000000
5433337122020233553  03156616520000011             000050000000000006272000000000000000000000000000000000000000000000000000000
5433337122020233553  03156616520000022             000050000000000008842000000000000000000000000000000000000000000000000000000
5433337122020233553  03156616520000034             000050000000000011315500000000000000000000000000000000000000000000000000000
5433337122020233553  03167816520000011             000100000000000012544000000000000000000000000000000000000000000000000000000
5433337122020233553  03167816520000024             000050000000000011315500000000000000000000000000000000000000000000000000000
5433337122020233553  03173116520000014             000050000000000011315500000000000000000000000000000000000000000000000000000
5433337122020233553  03173116520000024             000050000000000011290500000000000000000000000000000000000000000000000000000
5433337122020233553  03178516520000011             000050000000000006272000000000000000000000000000000000000000000000000000000
5433337122020233553  03178516520000024             000050000000000011290500000000000000000000000000000000000000000000000000000
5433337122020233553  03185116520000011             000100000000000012544000000000000000000000000000000000000000000000000000000
5433337122020233553  03185116520000024             000050000000000011315500000000000000000000000000000000000000000000000000000
5433337122020233553  03186916520000014             000050000000000011290500000000000000000000000000000000000000000000000000000
5433337122020233553  03196516520000014             000050000000000011290500000000000000000000000000000000000000000000000000000
5433337122020233553  03196616520000014             000050000000000011315500000000000000000000000000000000000000000000000000000
5433337122020233553  03202516520000011             000050000000000006272000000000000000000000000000000000000000000000000000000
5433337122020233553  03202616520000011             000050000000000006272000000000000000000000000000000000000000000000000000000
5433337122020233553  03208716520000011             000050000000000006272000000000000000000000000000000000000000000000000000000
5433337122020233553  03211616520000014             000050000000000011315500000000000000000000000000000000000000000000000000000
5433337122020233553  03211616520000024             000050000000000011290500000000000000000000000000000000000000000000000000000
5433337122020233553  03220816520000011             000100000000000012544000000000000000000000000000000000000000000000000000000
5433337122020233553  03220816520000024             000050000000000011315500000000000000000000000000000000000000000000000000000
5433337122020233553  2519721652000001210           000007200000000004975690000000000000000000000000000000000000000000000000000
7520100901201009301                     ETANOL HIDRATADO COMBUSTÍVEL COMUM                   LT    000000000000000000000000000
7520100901201009302                     ÓLEO DIESEL B ADITIVADO                              LT    000000000000000000000000000
752010090120100930210                   F1 MASTER SL 20W 50 LT                               UN    000000000000000000000000000
7520100901201009304                     GASOLINA SUPER ADITIVADA                             LT    000000000000000000000000000
9025124074000160102015732     5000000043540000007860000000007000000000710000000075000000049900000128                         1
