1025124074000160102015732     VALPOSTO COMBUSTIVEIS LTDA         GOIANIA                       GO62394595462010070120100731331
11Alameda Ricardo Paranhos          00504.                     ST Marista     74175020.                           006239459546
5033337122020233101427310     20100701GO553  0242041652T000000052530000000000000000000000000000000000000000000000000000000000N
5033337122020233101427310     20100702GO553  0243621652T000000266760000000000000000000000000000000000000000000000000000000000N
5033337122020233101427310     20100703GO553  0244411652T000000159770000000000000000000000000000000000000000000000000000000000N
5033337122020233101427310     20100705GO553  0245371652T000000248120000000000000000000000000000000000000000000000000000000000N
5033337122020233101427310     20100706GO553  0246381652T000000105060000000000000000000000000000000000000000000000000000000000N
5033337122020233101427310     20100706GO553  0246391652T000000107240000000000000000000000000000000000000000000000000000000000N
5033337122020233101427310     20100707GO551  2310321652T000000007538400000000000000000000000000000000000000000000000000000000N
5033337122020233101427310     20100708GO553  0248301652T000000266760000000000000000000000000000000000000000000000000000000000N
5033337122020233101427310     20100708GO553  2350891652T000000008376000000000000000000000000000000000000000000000000000000000N
5033337122020233101427310     20100708GO553  2351511652T000000019740000000000000000000000000000000000000000000000000000000000N
5033337122020233101427310     20100709GO553  0249121652T000000248120000000000000000000000000000000000000000000000000000000000N
5033337122020233101427310     20100710GO553  0250251652T000000267060000000000000000000000000000000000000000000000000000000000N
5033337122020233101427310     20100712GO553  0250771652T000000052530000000000000000000000000000000000000000000000000000000000N
5001581193000184102881480     20100712GO551  0350521652T000000000867600000000000000000000000000000000000000000000000000000000N
5033337122020233101427310     20100712GO553  2360631652T000000005198400000000000000000000000000000000000000000000000000000000N
5033337122020233101427310     20100713GO553  0251941652T000000267060000000000000000000000000000000000000000000000000000000000N
5033337122020233101427310     20100714GO553  0252811652T000000159920000000000000000000000000000000000000000000000000000000000N
5033337122020233101427310     20100715GO553  0253711652T000000248270000000000000000000000000000000000000000000000000000000000N
5033337122020233101427310     20100715GO551  2330841652T000000006800000000000000000000000000000000000000000000000000000000000N
5033337122020233101427310     20100716GO553  0254801652T000000212450000000000000000000000000000000000000000000000000000000000N
5033337122020233101427310     20100716GO553  0255761652T000000052530000000000000000000000000000000000000000000000000000000000N
5033337122020233101427310     20100716GO553  0255771652T000000107390000000000000000000000000000000000000000000000000000000000N
5026713305000134102209545     20100716GO551  0012691652T000000005496000000000000000000000000000000000000000000000000000000000N
5001581193000184102881480     20100717GO551  0361531652T000000006594400000000000000000000000000000000000000000000000000000000N
5033337122020233101427310     20100719GO553  0256701652T000000269785000000000000000000000000000000000000000000000000000000000N
5033337122020233101427310     20100720GO553  0258691652T000000054526400000000000000000000000000000000000000000000000000000000N
5033337122020233101427310     20100721GO553  0259251652T000000250990000000000000000000000000000000000000000000000000000000000N
5033337122020233101427310     20100722GO553  0260051652T000000162640000000000000000000000000000000000000000000000000000000000N
503333712201418780203314      20100722RJ553  2396462652T000000015256000000000000000000000000000000000000000000000000000000000N
5033337122020233101427310     20100723GO553  0261001652T000000054525000000000000000000000000000000000000000000000000000000000N
5033337122020233101427310     20100724GO553  0262231652T000000270505000000000000000000000000000000000000000000000000000000000N
5033337122020233101427310     20100726GO553  0263051652T000000250990000000000000000000000000000000000000000000000000000000000N
5033337122020233101427310     20100727GO553  0264251652T000000217165000000000000000000000000000000000000000000000000000000000N
5033337122020233101427310     20100728GO553  0265331652T000000270755000000000000000000000000000000000000000000000000000000000N
5033337122020233101427310     20100729GO553  0266321652T000000250990000000000000000000000000000000000000000000000000000000000N
5033337122020233101427310     20100730GO553  0267341652T000000054525000000000000000000000000000000000000000000000000000000000N
5033337122020233101427310     20100731GO553  0268651652T000000162640000000000000000000000000000000000000000000000000000000000N
5401581193000184551  0350521652000001129           000000120000000000086760000000000000000000000000000000000000000000000000000
5401581193000184551  03615316520000016             000000240000000000276520000000000000000000000000000000000000000000000000000
5401581193000184551  03615316520000027             000000480000000000382920000000000000000000000000000000000000000000000000000
5426713305000134551  001269165200000139            000001200000000000549600000000000000000000000000000000000000000000000000000
5433337122014187553  2396462652000001228           000004000000000001525600000000000000000000000000000000000000000000000000000
5433337122020233551  2310321652000001288           000000240000000000218160000000000000000000000000000000000000000000000000000
5433337122020233551  2310321652000002289           000000720000000000535680000000000000000000000000000000000000000000000000000
5433337122020233551  2330841652000001228           000002000000000000680000000000000000000000000000000000000000000000000000000
5433337122020233553  02420416520000011             000050000000000005253000000000000000000000000000000000000000000000000000000
5433337122020233553  02436216520000011             000050000000000005253000000000000000000000000000000000000000000000000000000
5433337122020233553  02436216520000024             000050000000000010724000000000000000000000000000000000000000000000000000000
5433337122020233553  02436216520000034             000050000000000010699000000000000000000000000000000000000000000000000000000
5433337122020233553  02444116520000011             000050000000000005253000000000000000000000000000000000000000000000000000000
5433337122020233553  02444116520000024             000050000000000010724000000000000000000000000000000000000000000000000000000
5433337122020233553  02453716520000011             000050000000000005253000000000000000000000000000000000000000000000000000000
5433337122020233553  02453716520000022             000050000000000008835000000000000000000000000000000000000000000000000000000
5433337122020233553  02453716520000034             000050000000000010724000000000000000000000000000000000000000000000000000000
5433337122020233553  02463816520000011             000100000000000010506000000000000000000000000000000000000000000000000000000
5433337122020233553  02463916520000014             000050000000000010724000000000000000000000000000000000000000000000000000000
5433337122020233553  02483016520000011             000050000000000005253000000000000000000000000000000000000000000000000000000
5433337122020233553  02483016520000024             000050000000000010724000000000000000000000000000000000000000000000000000000
5433337122020233553  02483016520000034             000050000000000010699000000000000000000000000000000000000000000000000000000
5433337122020233553  02491216520000011             000050000000000005253000000000000000000000000000000000000000000000000000000
5433337122020233553  02491216520000022             000050000000000008835000000000000000000000000000000000000000000000000000000
5433337122020233553  02491216520000034             000050000000000010724000000000000000000000000000000000000000000000000000000
5433337122020233553  02502516520000011             000050000000000005253000000000000000000000000000000000000000000000000000000
5433337122020233553  02502516520000024             000050000000000010739000000000000000000000000000000000000000000000000000000
5433337122020233553  02502516520000034             000050000000000010714000000000000000000000000000000000000000000000000000000
5433337122020233553  02507716520000011             000050000000000005253000000000000000000000000000000000000000000000000000000
5433337122020233553  02519416520000011             000050000000000005253000000000000000000000000000000000000000000000000000000
5433337122020233553  02519416520000024             000050000000000010714000000000000000000000000000000000000000000000000000000
5433337122020233553  02519416520000034             000050000000000010739000000000000000000000000000000000000000000000000000000
5433337122020233553  02528116520000011             000050000000000005253000000000000000000000000000000000000000000000000000000
5433337122020233553  02528116520000024             000050000000000010739000000000000000000000000000000000000000000000000000000
5433337122020233553  02537116520000011             000050000000000005253000000000000000000000000000000000000000000000000000000
5433337122020233553  02537116520000022             000050000000000008835000000000000000000000000000000000000000000000000000000
5433337122020233553  02537116520000034             000050000000000010739000000000000000000000000000000000000000000000000000000
5433337122020233553  02548016520000011             000100000000000010506000000000000000000000000000000000000000000000000000000
5433337122020233553  02548016520000024             000050000000000010739000000000000000000000000000000000000000000000000000000
5433337122020233553  02557616520000011             000050000000000005253000000000000000000000000000000000000000000000000000000
5433337122020233553  02557716520000014             000050000000000010739000000000000000000000000000000000000000000000000000000
5433337122020233553  02567016520000011             000050000000000005453000000000000000000000000000000000000000000000000000000
5433337122020233553  02567016520000024             000050000000000010739000000000000000000000000000000000000000000000000000000
5433337122020233553  02567016520000034             000050000000000010786500000000000000000000000000000000000000000000000000000
5433337122020233553  02586916520000011             000050000000000005452640000000000000000000000000000000000000000000000000000
5433337122020233553  02592516520000011             000050000000000005452500000000000000000000000000000000000000000000000000000
5433337122020233553  02592516520000022             000050000000000008835000000000000000000000000000000000000000000000000000000
5433337122020233553  02592516520000034             000050000000000010811500000000000000000000000000000000000000000000000000000
5433337122020233553  02600516520000011             000050000000000005452500000000000000000000000000000000000000000000000000000
5433337122020233553  02600516520000024             000050000000000010811500000000000000000000000000000000000000000000000000000
5433337122020233553  02610016520000011             000050000000000005452500000000000000000000000000000000000000000000000000000
5433337122020233553  02622316520000011             000050000000000005452500000000000000000000000000000000000000000000000000000
5433337122020233553  02622316520000024             000050000000000010786500000000000000000000000000000000000000000000000000000
5433337122020233553  02622316520000034             000050000000000010811500000000000000000000000000000000000000000000000000000
5433337122020233553  02630516520000011             000050000000000005452500000000000000000000000000000000000000000000000000000
5433337122020233553  02630516520000022             000050000000000008835000000000000000000000000000000000000000000000000000000
5433337122020233553  02630516520000034             000050000000000010811500000000000000000000000000000000000000000000000000000
5433337122020233553  02642516520000011             000100000000000010905000000000000000000000000000000000000000000000000000000
5433337122020233553  02642516520000024             000050000000000010811500000000000000000000000000000000000000000000000000000
5433337122020233553  02653316520000011             000050000000000005452500000000000000000000000000000000000000000000000000000
5433337122020233553  02653316520000024             000050000000000010811500000000000000000000000000000000000000000000000000000
5433337122020233553  02653316520000034             000050000000000010811500000000000000000000000000000000000000000000000000000
5433337122020233553  02663216520000011             000050000000000005452500000000000000000000000000000000000000000000000000000
5433337122020233553  02663216520000022             000050000000000008835000000000000000000000000000000000000000000000000000000
5433337122020233553  02663216520000034             000050000000000010811500000000000000000000000000000000000000000000000000000
5433337122020233553  02673416520000011             000050000000000005452500000000000000000000000000000000000000000000000000000
5433337122020233553  02686516520000011             000050000000000005452500000000000000000000000000000000000000000000000000000
5433337122020233553  02686516520000024             000050000000000010811500000000000000000000000000000000000000000000000000000
5433337122020233553  2350891652000001241           000001200000000000837600000000000000000000000000000000000000000000000000000
5433337122020233553  2351511652000001293           000001200000000001974000000000000000000000000000000000000000000000000000000
5433337122020233553  2360631652000001292           000000720000000000519840000000000000000000000000000000000000000000000000000
7520100701201007311                     ETANOL HIDRATADO COMBUSTÍVEL COMUM                   LT    000000000000000000000000000
752010070120100731129                   W7 MULTI 18                                          UN    000001700000000000000000000
7520100701201007312                     ÓLEO DIESEL B ADITIVADO                              LT    000000000000000000000000000
752010070120100731228                   F1 MASTER SL 20W50 500ML                             UN    000000000000000000000000000
752010070120100731241                   BRUTUS T5 15W40                                      UN    000000000000000000000000000
752010070120100731288                   DEXRON LITRO                                         UN    000000000000000000000000000
752010070120100731289                   IPIRGEROL EP 140 LT.                                 UN    000000000000000000000000000
752010070120100731292                   IPIRGEROL EP 80 LT.                                  UN    000000000000000000000000000
752010070120100731293                   F1 MASTER SINTÉTICO 5W 30                            UN    000000000000000000000000000
75201007012010073139                    QUEROSENE                                            UN    000000000000000000000000000
7520100701201007314                     GASOLINA SUPER ADITIVADA                             LT    000000000000000000000000000
7520100701201007316                     GLADE AUTO SPORT APARELHO                            UN    000001700000000000000000000
7520100701201007317                     GLADE REFIL                                          UN    000001700000000000000000000
9025124074000160102015732     5000000037540000007160000000007000000000710000000075000000139900000124                         1
