1003156892000102103161880     VW COMERCIO DE COMB. LTDA          GOIANIA                       GO62394595452010070120100731331
11AV. RIO VERDE 1020                00000.                     PARQUE AMAZONIA74840120VALDYR PEREIRA              039459545000
5033337122020233101427310     20100701GO553  0242031652T000000164830000000000000000000000000000000000000000000000000000000000N
5033337122020233101427310     20100703GO553  0244401652T000000088350000000000000000000000000000000000000000000000000000000000N
5033337122020233101427310     20100705GO553  0245921652T000000212050000000000000000000000000000000000000000000000000000000000N
5033337122020233101427310     20100707GO553  0247271652T000000247870000000000000000000000000000000000000000000000000000000000N
5033337122020233101427310     20100709GO553  0249331652T000000247840000000000000000000000000000000000000000000000000000000000N
5033337122020233101427310     20100712GO553  0250761652T000000159670000000000000000000000000000000000000000000000000000000000N
5033337122020233101427310     20100713GO553  0252121652T000000248020000000000000000000000000000000000000000000000000000000000N
5033337122020233101427310     20100714GO553  0252821652T000000109275000000000000000000000000000000000000000000000000000000000N
5033337122020233101427310     20100715GO553  0253881652T000000248020000000000000000000000000000000000000000000000000000000000N
5026713305000134102209545     20100716GO551  0012701652T000000005496000000000000000000000000000000000000000000000000000000000N
5033337122020233101427310     20100717GO553  0255751652T000000052530000000000000000000000000000000000000000000000000000000000N
5033337122020233101427310     20100719GO553  0256911652T000000250740000000000000000000000000000000000000000000000000000000000N
5033337122020233101427310     20100719GO551  2383411652T000000010683200000000000000000000000000000000000000000000000000000000N
5033337122020233101427310     20100720GO553  0258701652T000000160395000000000000000000000000000000000000000000000000000000000N
5033337122020233101427310     20100722GO553  0260061652T000000107865000000000000000000000000000000000000000000000000000000000N
5033337122020233101427310     20100722GO551  2396011652T000000025993400000000000000000000000000000000000000000000000000000000N
5033337122020233101427310     20100723GO553  0261011652T000000162390000000000000000000000000000000000000000000000000000000000N
5033337122020233101427310     20100726GO553  0263251652T000000250741400000000000000000000000000000000000000000000000000000000N
5033337122020233101427310     20100728GO553  0265511652T000000249866400000000000000000000000000000000000000000000000000000000N
5033337122020233101427310     20100730GO553  0267351652T000000162391400000000000000000000000000000000000000000000000000000000N
5033337122020233101427310     20100731GO553  0268661652T000000088350000000000000000000000000000000000000000000000000000000000N
5426713305000134551  001270165200000139            000001200000000000549600000000000000000000000000000000000000000000000000000
5433337122020233551  238341165200000114            000001600000000000527260000000000000000000000000000000000000000000000000000
5433337122020233551  2383411652000002323           000000720000000000541060000000000000000000000000000000000000000000000000000
5433337122020233551  2396011652000001210           000003600000000002599340000000000000000000000000000000000000000000000000000
5433337122020233553  02420316520000011             000050000000000005523000000000000000000000000000000000000000000000000000000
5433337122020233553  02420316520000023             000050000000000010960000000000000000000000000000000000000000000000000000000
5433337122020233553  02444016520000012             000050000000000008835000000000000000000000000000000000000000000000000000000
5433337122020233553  02459216520000011             000100000000000010506000000000000000000000000000000000000000000000000000000
5433337122020233553  02459216520000023             000050000000000010699000000000000000000000000000000000000000000000000000000
5433337122020233553  02472716520000011             000050000000000005253000000000000000000000000000000000000000000000000000000
5433337122020233553  02472716520000022             000050000000000008835000000000000000000000000000000000000000000000000000000
5433337122020233553  02472716520000033             000050000000000010699000000000000000000000000000000000000000000000000000000
5433337122020233553  02493316520000011             000050000000000005253000000000000000000000000000000000000000000000000000000
5433337122020233553  02493316520000022             000050000000000008832000000000000000000000000000000000000000000000000000000
5433337122020233553  02493316520000033             000050000000000010699000000000000000000000000000000000000000000000000000000
5433337122020233553  02507616520000011             000050000000000005253000000000000000000000000000000000000000000000000000000
5433337122020233553  02507616520000023             000050000000000010714000000000000000000000000000000000000000000000000000000
5433337122020233553  02521216520000011             000050000000000005253000000000000000000000000000000000000000000000000000000
5433337122020233553  02521216520000022             000050000000000008835000000000000000000000000000000000000000000000000000000
5433337122020233553  02521216520000033             000050000000000010714000000000000000000000000000000000000000000000000000000
5433337122020233553  02528216520000013             000050000000000010927500000000000000000000000000000000000000000000000000000
5433337122020233553  02538816520000011             000050000000000005253000000000000000000000000000000000000000000000000000000
5433337122020233553  02538816520000022             000050000000000008835000000000000000000000000000000000000000000000000000000
5433337122020233553  02538816520000033             000050000000000010714000000000000000000000000000000000000000000000000000000
5433337122020233553  02557516520000011             000050000000000005253000000000000000000000000000000000000000000000000000000
5433337122020233553  02569116520000011             000050000000000005452500000000000000000000000000000000000000000000000000000
5433337122020233553  02569116520000022             000050000000000008835000000000000000000000000000000000000000000000000000000
5433337122020233553  02569116520000033             000050000000000010786500000000000000000000000000000000000000000000000000000
5433337122020233553  02587016520000011             000050000000000005253000000000000000000000000000000000000000000000000000000
5433337122020233553  02587016520000023             000050000000000010786500000000000000000000000000000000000000000000000000000
5433337122020233553  02600616520000013             000050000000000010786500000000000000000000000000000000000000000000000000000
5433337122020233553  02610116520000011             000050000000000005452500000000000000000000000000000000000000000000000000000
5433337122020233553  02610116520000023             000050000000000010786500000000000000000000000000000000000000000000000000000
5433337122020233553  02632516520000011             000050000000000005452640000000000000000000000000000000000000000000000000000
5433337122020233553  02632516520000022             000050000000000008835000000000000000000000000000000000000000000000000000000
5433337122020233553  02632516520000033             000050000000000010786500000000000000000000000000000000000000000000000000000
5433337122020233553  02655116520000011             000050000000000005452640000000000000000000000000000000000000000000000000000
5433337122020233553  02655116520000022             000050000000000008835000000000000000000000000000000000000000000000000000000
5433337122020233553  02655116520000033             000050000000000010699000000000000000000000000000000000000000000000000000000
5433337122020233553  02673516520000011             000050000000000005452640000000000000000000000000000000000000000000000000000
5433337122020233553  02673516520000023             000050000000000010786500000000000000000000000000000000000000000000000000000
5433337122020233553  02686616520000012             000050000000000008835000000000000000000000000000000000000000000000000000000
7520100701201007311                     ETANOL HIDRATADO COMBUSTÍVEL COMUM                   LT    000000000000000000000000000
75201007012010073114                    DOT3 200ML                                           UN    000000000000000000000000000
7520100701201007312                     ÓLEO DIESEL B COMUM                                  LT    000000000000000000000000000
752010070120100731210                   F1 MASTER SL 20W 50 LT                               UN    000000000000000000000000000
7520100701201007313                     GASOLINA C ADITIVADA                                 LT    000000000000000000000000000
752010070120100731323                   IPIRGEROL EP90 1LT                                   UN    000000000000000000000000000
75201007012010073139                    QUEROSENE                                            UN    000000000000000000000000000
9003156892000102103161880     5000000021540000004260000000007000000000710000000075000000079900000073                         1
