1003156892000102103161880     VW COMERCIO DE COMB. LTDA          GOIANIA                       GO62394595452010060120100630331
11AV. RIO VERDE 1020                00000.                     PARQUE AMAZONIA74840120VALDYR PEREIRA              039459545000
503333712201418780203314      20100601RJ553  2230852652T000000009697700000000000000000000000000000000000000000000000000000000N
5033337122020233101427310     20100602GO553  0218501652T000000251955000000000000000000000000000000000000000000000000000000000N
5033337122020233101427310     20100608GO553  0222691652T000000055230000000000000000000000000000000000000000000000000000000000N
5033337122020233101427310     20100608GO553  0222701652T000000088350000000000000000000000000000000000000000000000000000000000N
5033337122020233101427310     20100608GO553  0222721652T000000271980000000000000000000000000000000000000000000000000000000000N
5033337122020233101427310     20100609GO553  0224051652T000000253180000000000000000000000000000000000000000000000000000000000N
503333712201418780203314      20100609RJ553  2259902652T000000006415300000000000000000000000000000000000000000000000000000000N
503333712201418780203314      20100609RJ553  2259922652T000000013475300000000000000000000000000000000000000000000000000000000N
5033337122020233101427310     20100610GO553  0224981652T000000143580000000000000000000000000000000000000000000000000000000000N
5033337122020233101427310     20100610GO553  0224991652T000000108735000000000000000000000000000000000000000000000000000000000N
5033337122020233101427310     20100612GO553  0226421652T000000162220000000000000000000000000000000000000000000000000000000000N
5033337122020233101427310     20100614GO553  0227391652T000000283690000000000000000000000000000000000000000000000000000000000N
5033337122020233101427310     20100616GO553  0229671652T000000250570000000000000000000000000000000000000000000000000000000000N
5033337122020233101427310     20100617GO553  0230921652T000000106990000000000000000000000000000000000000000000000000000000000N
5033337122020233101427310     20100618GO553  0231661652T000000143580000000000000000000000000000000000000000000000000000000000N
5033337122020233101427310     20100621GO553  0233601652T000000250570000000000000000000000000000000000000000000000000000000000N
5033337122020233101427310     20100623GO553  0235191652T000000162220000000000000000000000000000000000000000000000000000000000N
5033337122020233101427310     20100624GO553  0236171652T000000250570000000000000000000000000000000000000000000000000000000000N
5003903500000121103287582     20100625GO554  0075291652T000000005435300000000000000000000000000000000000000000000000000000000N
5033337122020233101427310     20100626GO553  0238251652T000000162220000000000000000000000000000000000000000000000000000000000N
5033337122020233101427310     20100629GO553  0240611652T000000253180000000000000000000000000000000000000000000000000000000000N
5403903500000121554  007529165200000141            000000240000000000254520000000000000000000000000000000000000000000000000000
5403903500000121554  007529165200000243            000000240000000000289010000000000000000000000000000000000000000000000000000
5433337122014187553  2230852652000001290           000000100000000000969770000000000000000000000000000000000000000000000000000
5433337122014187553  2259902652000001298           000000720000000000641530000000000000000000000000000000000000000000000000000
5433337122014187553  2259922652000001297           000001920000000001347530000000000000000000000000000000000000000000000000000
5433337122020233553  02185016520000011             000050000000000005523000000000000000000000000000000000000000000000000000000
5433337122020233553  02185016520000022             000050000000000008835000000000000000000000000000000000000000000000000000000
5433337122020233553  02185016520000033             000050000000000010837500000000000000000000000000000000000000000000000000000
5433337122020233553  02226916520000011             000050000000000005523000000000000000000000000000000000000000000000000000000
5433337122020233553  02227016520000012             000050000000000008835000000000000000000000000000000000000000000000000000000
5433337122020233553  02227216520000013             000100000000000021675000000000000000000000000000000000000000000000000000000
5433337122020233553  02227216520000021             000050000000000005523000000000000000000000000000000000000000000000000000000
5433337122020233553  02240516520000011             000050000000000005523000000000000000000000000000000000000000000000000000000
5433337122020233553  02240516520000022             000050000000000008835000000000000000000000000000000000000000000000000000000
5433337122020233553  02240516520000033             000050000000000010960000000000000000000000000000000000000000000000000000000
5433337122020233553  02249816520000011             000050000000000005523000000000000000000000000000000000000000000000000000000
5433337122020233553  02249816520000022             000050000000000008835000000000000000000000000000000000000000000000000000000
5433337122020233553  02249916520000013             000050000000000010873500000000000000000000000000000000000000000000000000000
5433337122020233553  02264216520000011             000050000000000005523000000000000000000000000000000000000000000000000000000
5433337122020233553  02264216520000023             000050000000000010699000000000000000000000000000000000000000000000000000000
5433337122020233553  02273916520000012             000100000000000017670000000000000000000000000000000000000000000000000000000
5433337122020233553  02273916520000023             000050000000000010699000000000000000000000000000000000000000000000000000000
5433337122020233553  02296716520000011             000050000000000005523000000000000000000000000000000000000000000000000000000
5433337122020233553  02296716520000022             000050000000000008835000000000000000000000000000000000000000000000000000000
5433337122020233553  02296716520000033             000050000000000010699000000000000000000000000000000000000000000000000000000
5433337122020233553  02309216520000013             000050000000000010699000000000000000000000000000000000000000000000000000000
5433337122020233553  02316616520000011             000050000000000005523000000000000000000000000000000000000000000000000000000
5433337122020233553  02316616520000022             000050000000000008835000000000000000000000000000000000000000000000000000000
5433337122020233553  02336016520000011             000050000000000005523000000000000000000000000000000000000000000000000000000
5433337122020233553  02336016520000022             000050000000000008835000000000000000000000000000000000000000000000000000000
5433337122020233553  02336016520000033             000050000000000010699000000000000000000000000000000000000000000000000000000
5433337122020233553  02351916520000011             000050000000000005523000000000000000000000000000000000000000000000000000000
5433337122020233553  02351916520000023             000050000000000010699000000000000000000000000000000000000000000000000000000
5433337122020233553  02361716520000011             000050000000000005523000000000000000000000000000000000000000000000000000000
5433337122020233553  02361716520000022             000050000000000008835000000000000000000000000000000000000000000000000000000
5433337122020233553  02361716520000033             000050000000000010699000000000000000000000000000000000000000000000000000000
5433337122020233553  02382516520000011             000050000000000005523000000000000000000000000000000000000000000000000000000
5433337122020233553  02382516520000023             000050000000000010699000000000000000000000000000000000000000000000000000000
5433337122020233553  02406116520000011             000050000000000005523000000000000000000000000000000000000000000000000000000
5433337122020233553  02406116520000022             000050000000000008835000000000000000000000000000000000000000000000000000000
5433337122020233553  02406116520000033             000050000000000010960000000000000000000000000000000000000000000000000000000
7520100601201006301                     ETANOL HIDRATADO COMBUSTÍVEL COMUM                   LT    000000000000000000000000000
7520100601201006302                     ÓLEO DIESEL B COMUM                                  LT    000000000000000000000000000
752010060120100630290                   ULTRAMO TURBO                                        UN    000000000000000000000000000
752010060120100630297                   GP MASTER SF 4T LT.                                  UN    000000000000000000000000000
752010060120100630298                   ATF DEXRON CX 24 LT                                  UN    000000000000000000000000000
7520100601201006303                     GASOLINA C ADITIVADA                                 LT    000000000000000000000000000
75201006012010063041                    STP FUEL                                             UN    000000000000000000000000000
75201006012010063043                    STP DIESEL                                           UN    000000000000000000000000000
9003156892000102103161880     5000000021540000004160000000007000000000710000000075000000089900000073                         1
