1003156892000102103161880     VW COMERCIO DE COMB. LTDA          GOIANIA                       GO62394595452010080120100831331
11AV. RIO VERDE 1020                00000.                     PARQUE AMAZONIA74840120VALDYR PEREIRA              039459545000
5033337122020233101427310     20100803GO553  0270381652T000000217313600000000000000000000000000000000000000000000000000000000N
5033337122020233101427310     20100804GO553  0271511652T000000215730000000000000000000000000000000000000000000000000000000000N
5033337122020233101427310     20100804GO553  0271761652T000000054574400000000000000000000000000000000000000000000000000000000N
5001581193000184102881480     20100804GO551  0376651652T000000006582400000000000000000000000000000000000000000000000000000000N
5033337122020233101427310     20100806GO553  0274541652T000000250789400000000000000000000000000000000000000000000000000000000N
5033337122020233101427310     20100806GO553  0274931652T000000054574400000000000000000000000000000000000000000000000000000000N
5033337122020233101427310     20100809GO553  0276451652T000000168587300000000000000000000000000000000000000000000000000000000N
5033337122020233101427310     20100811GO553  0277951652T000000258780300000000000000000000000000000000000000000000000000000000N
5033337122020233101427310     20100813GO553  0280091652T000000283345300000000000000000000000000000000000000000000000000000000N
5033337122020233101427310     20100813GO553  2459181652T000000012284700000000000000000000000000000000000000000000000000000000N
5033337122020233101427310     20100813GO553  2459191652T000000005118300000000000000000000000000000000000000000000000000000000N
5033337122020233101427310     20100816GO553  0282211652T000000258780300000000000000000000000000000000000000000000000000000000N
5033337122020233101427310     20100818GO553  0284411652T000000281210300000000000000000000000000000000000000000000000000000000N
5033337122020233101427310     20100820GO553  0286631652T000000170430300000000000000000000000000000000000000000000000000000000N
5001581193000184102881480     20100820GO551  0389211652T000000002835000000000000000000000000000000000000000000000000000000000N
5033337122020233101427310     20100823GO553  0288951652T000000258780300000000000000000000000000000000000000000000000000000000N
5033337122020233101427310     20100825GO553  0290861652T000000258932300000000000000000000000000000000000000000000000000000000N
5033337122020233101427310     20100826GO553  0292461652T000000170582300000000000000000000000000000000000000000000000000000000N
5026713305000134102209545     20100826GO551  0005261652T000000000300000000000000000000000000000000000000000000000000000000000N
5001581193000184102881480     20100826GO551  0394481652T000000004106400000000000000000000000000000000000000000000000000000000N
5033337122020233101427310     20100826GO553  2495251652T000000017691100000000000000000000000000000000000000000000000000000000N
5033337122020233101427310     20100826GO553  2495531652T000000003636700000000000000000000000000000000000000000000000000000000N
5033337122020233101427310     20100827GO553  0293371652T000000170582300000000000000000000000000000000000000000000000000000000N
5033337122020233101427310     20100831GO553  0296431652T000000259132300000000000000000000000000000000000000000000000000000000N
5401581193000184551  037665165200000198            000000060000000000124140000000000000000000000000000000000000000000000000000
5401581193000184551  0376651652000002100           000000060000000000146580000000000000000000000000000000000000000000000000000
5401581193000184551  0376651652000003103           000000240000000000192960000000000000000000000000000000000000000000000000000
5401581193000184551  0376651652000004109           000000020000000000017240000000000000000000000000000000000000000000000000000
5401581193000184551  0376651652000005117           000000020000000000044660000000000000000000000000000000000000000000000000000
5401581193000184551  0376651652000006119           000000020000000000028620000000000000000000000000000000000000000000000000000
5401581193000184551  0376651652000007326           000000120000000000104040000000000000000000000000000000000000000000000000000
5401581193000184551  0389211652000001129           000000120000000000086760000000000000000000000000000000000000000000000000000
5401581193000184551  0389211652000002146           000000120000000000102600000000000000000000000000000000000000000000000000000
5401581193000184551  0389211652000003237           000000060000000000094140000000000000000000000000000000000000000000000000000
5401581193000184551  0394481652000001107           000000120000000000111360000000000000000000000000000000000000000000000000000
5401581193000184551  0394481652000002144           000000060000000000086220000000000000000000000000000000000000000000000000000
5401581193000184551  0394481652000003146           000000120000000000102600000000000000000000000000000000000000000000000000000
5401581193000184551  0394481652000004190           000000060000000000110460000000000000000000000000000000000000000000000000000
5426713305000134551  0005261652000001330           000000010000000000030000000000000000000000000000000000000000000000000000000
5433337122020233553  02703816520000011             000100000000000010944860000000000000000000000000000000000000000000000000000
5433337122020233553  02703816520000023             000050000000000010786500000000000000000000000000000000000000000000000000000
5433337122020233553  02715116520000013             000100000000000021573000000000000000000000000000000000000000000000000000000
5433337122020233553  02717616520000011             000050000000000005457440000000000000000000000000000000000000000000000000000
5433337122020233553  02745416520000011             000050000000000005457440000000000000000000000000000000000000000000000000000
5433337122020233553  02745416520000022             000050000000000008835000000000000000000000000000000000000000000000000000000
5433337122020233553  02745416520000033             000050000000000010786500000000000000000000000000000000000000000000000000000
5433337122020233553  02749316520000011             000050000000000005457440000000000000000000000000000000000000000000000000000
5433337122020233553  02764516520000011             000050000000000005818230000000000000000000000000000000000000000000000000000
5433337122020233553  02764516520000023             000050000000000011040500000000000000000000000000000000000000000000000000000
5433337122020233553  02779516520000011             000050000000000005965030000000000000000000000000000000000000000000000000000
5433337122020233553  02779516520000022             000050000000000008835000000000000000000000000000000000000000000000000000000
5433337122020233553  02779516520000033             000050000000000011078000000000000000000000000000000000000000000000000000000
5433337122020233553  02800916520000011             000050000000000005965030000000000000000000000000000000000000000000000000000
5433337122020233553  02800916520000023             000050000000000011078000000000000000000000000000000000000000000000000000000
5433337122020233553  02800916520000033             000050000000000011291500000000000000000000000000000000000000000000000000000
5433337122020233553  02822116520000011             000050000000000005965030000000000000000000000000000000000000000000000000000
5433337122020233553  02822116520000022             000050000000000008835000000000000000000000000000000000000000000000000000000
5433337122020233553  02822116520000033             000050000000000011078000000000000000000000000000000000000000000000000000000
5433337122020233553  02844116520000011             000050000000000005965030000000000000000000000000000000000000000000000000000
5433337122020233553  02844116520000023             000100000000000022156000000000000000000000000000000000000000000000000000000
5433337122020233553  02866316520000011             000050000000000005965030000000000000000000000000000000000000000000000000000
5433337122020233553  02866316520000023             000050000000000011078000000000000000000000000000000000000000000000000000000
5433337122020233553  02889516520000011             000050000000000005965030000000000000000000000000000000000000000000000000000
5433337122020233553  02889516520000022             000050000000000008835000000000000000000000000000000000000000000000000000000
5433337122020233553  02889516520000033             000050000000000011078000000000000000000000000000000000000000000000000000000
5433337122020233553  02908616520000011             000050000000000005980230000000000000000000000000000000000000000000000000000
5433337122020233553  02908616520000022             000050000000000008835000000000000000000000000000000000000000000000000000000
5433337122020233553  02908616520000033             000050000000000011078000000000000000000000000000000000000000000000000000000
5433337122020233553  02924616520000011             000050000000000005980230000000000000000000000000000000000000000000000000000
5433337122020233553  02924616520000023             000050000000000011078000000000000000000000000000000000000000000000000000000
5433337122020233553  02933716520000011             000050000000000005980230000000000000000000000000000000000000000000000000000
5433337122020233553  02933716520000023             000050000000000011078000000000000000000000000000000000000000000000000000000
5433337122020233553  02964316520000011             000050000000000005980230000000000000000000000000000000000000000000000000000
5433337122020233553  02964316520000022             000050000000000008835000000000000000000000000000000000000000000000000000000
5433337122020233553  02964316520000033             000050000000000011098000000000000000000000000000000000000000000000000000000
5433337122020233553  2459181652000001229           000001200000000001228470000000000000000000000000000000000000000000000000000
5433337122020233553  2459191652000001290           000000050000000000511830000000000000000000000000000000000000000000000000000
5433337122020233553  2495251652000001210           000002400000000001769110000000000000000000000000000000000000000000000000000
5433337122020233553  2495531652000001222           000000720000000000363670000000000000000000000000000000000000000000000000000
7520100801201008311                     ETANOL HIDRATADO COMBUSTÍVEL COMUM                   LT    000000000000000000000000000
752010080120100831100                   C 1858/1                                             UN    000001700000000000000000000
752010080120100831103                   C 2585                                               UN    000001700000000000000000000
752010080120100831107                   C 2990                                               UN    000001700000000000000000000
752010080120100831109                   C 26111                                              UN    000001700000000000000000000
752010080120100831117                   C 2776                                               UN    000001700000000000000000000
752010080120100831119                   C 26168                                              UN    000001700000000000000000000
752010080120100831129                   W7 MULTI 18                                          UN    000001700000000000000000000
752010080120100831144                   W 962                                                UN    000001700000000000000000000
752010080120100831146                   W6 MULTI 20                                          UN    000001700000000000000000000
752010080120100831190                   WK 612                                               UN    000001700000000000000000000
7520100801201008312                     ÓLEO DIESEL B COMUM                                  LT    000000000000000000000000000
752010080120100831210                   F1 MASTER SL 20W 50 LT                               UN    000000000000000000000000000
752010080120100831222                   LITHOLINE MP 500G                                    UN    000000000000000000000000000
752010080120100831229                   F1 MASTER PLUS 15W40                                 UN    000000000000000000000000000
752010080120100831237                   C 2295/2                                             UN    000001700000000000000000000
752010080120100831290                   ULTRAMO TURBO                                        UN    000000000000000000000000000
7520100801201008313                     GASOLINA C ADITIVADA                                 LT    000000000000000000000000000
752010080120100831326                   W 712/53                                             UN    000001700000000000000000000
752010080120100831330                   EFS 110                                              UN    000001700000000000000000000
75201008012010083198                    C 2159                                               UN    000001700000000000000000000
9003156892000102103161880     5000000024540000005560000000007000000000710000000075000000219900000103                         1
