1025124074000160102015732     VALPOSTO COMBUSTIVEIS LTDA         GOIANIA                       GO62394595462010080120100831331
11Alameda Ricardo Paranhos          00504.                     ST Marista     74175020.                           006239459546
5033337122020233101427310     20100802GO553  0269541652T000000270505000000000000000000000000000000000000000000000000000000000N
5033337122020233101427310     20100803GO553  0270311652T000000250990000000000000000000000000000000000000000000000000000000000N
5033337122020233101427310     20100804GO553  0271521652T000000108115000000000000000000000000000000000000000000000000000000000N
5033337122020233101427310     20100804GO553  0271771652T000000109150000000000000000000000000000000000000000000000000000000000N
5033337122020233101427310     20100805GO553  0272401652T000000270555000000000000000000000000000000000000000000000000000000000N
5033337122020233101427310     20100806GO553  0273671652T000000217265000000000000000000000000000000000000000000000000000000000N
5033337122020233101427310     20100806GO553  0274941652T000000162690000000000000000000000000000000000000000000000000000000000N
5073581753000101102615608     20100806GO552  0186331652T000000001964700000000000000000000000000000000000000000000000000000000N
5001581193000184102881480     20100806GO551  0378281652T000000009089600000000000000000000000000000000000000000000000000000000N
5033337122020233101427310     20100809GO553  0276091652T000000257185000000000000000000000000000000000000000000000000000000000N
5033337122020233101427310     20100809GO553  0276461652T000000058180000000000000000000000000000000000000000000000000000000000N
5033337122020233101427310     20100810GO553  0276711652T000000279240000000000000000000000000000000000000000000000000000000000N
5073581753000101102615608     20100810GO552  0187051652T000000000749400000000000000000000000000000000000000000000000000000000N
5033337122020233101427310     20100810GO553  2447711652T000000017592000000000000000000000000000000000000000000000000000000000N
5033337122020233101427310     20100811GO553  0277731652T000000281460000000000000000000000000000000000000000000000000000000000N
5033337122020233101427310     20100812GO553  0278811652T000000230330000000000000000000000000000000000000000000000000000000000N
5033337122020233101427310     20100813GO553  0279841652T000000259030000000000000000000000000000000000000000000000000000000000N
5033337122020233101427310     20100813GO553  2459021652T000000039120000000000000000000000000000000000000000000000000000000000N
5033337122020233101427310     20100813GO553  2459151652T000000041880000000000000000000000000000000000000000000000000000000000N
5033337122020233101427310     20100814GO553  0281291652T000000230330000000000000000000000000000000000000000000000000000000000N
5033337122020233101427310     20100816GO553  0281941652T000000281460000000000000000000000000000000000000000000000000000000000N
5033337122020233101427310     20100817GO553  0283081652T000000259030000000000000000000000000000000000000000000000000000000000N
5033337122020233101427310     20100818GO553  0284271652T000000230330000000000000000000000000000000000000000000000000000000000N
5033337122020233101427310     20100819GO553  0285371652T000000281460000000000000000000000000000000000000000000000000000000000N
5073581753000101102615608     20100819GO552  0190781652T000000006539900000000000000000000000000000000000000000000000000000000N
5033337122020233101427310     20100820GO553  0286411652T000000230330000000000000000000000000000000000000000000000000000000000N
5033337122020233101427310     20100820GO553  0286621652T000000088350000000000000000000000000000000000000000000000000000000000N
5033337122020233101427310     20100821GO553  0288201652T000000281460000000000000000000000000000000000000000000000000000000000N
5033337122020233101427310     20100823GO553  0288781652T000000230330000000000000000000000000000000000000000000000000000000000N
5033337122020233101427310     20100824GO553  0289771652T000000281610000000000000000000000000000000000000000000000000000000000N
5033337122020233101427310     20100825GO553  0290741652T000000207950000000000000000000000000000000000000000000000000000000000N
5001581193000184102881480     20100825GO551  0393911652T000000017277100000000000000000000000000000000000000000000000000000000N
5033337122020233101427310     20100826GO553  0291831652T000000281610000000000000000000000000000000000000000000000000000000000N
5033337122020233101427310     20100826GO553  0292451652T000000059800000000000000000000000000000000000000000000000000000000000N
5003903500000121103287582     20100826GO551  0069181652T000000001020000000000000000000000000000000000000000000000000000000000N
5033337122020233101427310     20100827GO553  0292861652T000000281610000000000000000000000000000000000000000000000000000000000N
5033337122020233101427310     20100827GO553  0293361652T000000111030000000000000000000000000000000000000000000000000000000000N
5033337122020233101427310     20100828GO553  0294251652T000000259180000000000000000000000000000000000000000000000000000000000N
5033337122020233101427310     20100830GO553  0294971652T000000230830000000000000000000000000000000000000000000000000000000000N
5033337122020233101427310     20100831GO553  0296271652T000000282010000000000000000000000000000000000000000000000000000000000N
5401581193000184551  0378281652000001295           000000030000000000075480000000000000000000000000000000000000000000000000000
5401581193000184551  0378281652000002296           000000010000000000035640000000000000000000000000000000000000000000000000000
5401581193000184551  037828165200000395            000000060000000000111480000000000000000000000000000000000000000000000000000
5401581193000184551  0378281652000004102           000000120000000000084480000000000000000000000000000000000000000000000000000
5401581193000184551  0378281652000005103           000000240000000000192960000000000000000000000000000000000000000000000000000
5401581193000184551  0378281652000006106           000000060000000000050040000000000000000000000000000000000000000000000000000
5401581193000184551  0378281652000007114           000000020000000000048960000000000000000000000000000000000000000000000000000
5401581193000184551  0378281652000008127           000000040000000000065840000000000000000000000000000000000000000000000000000
5401581193000184551  0378281652000009134           000000020000000000036800000000000000000000000000000000000000000000000000000
5401581193000184551  0378281652000010136           000000020000000000069280000000000000000000000000000000000000000000000000000
5401581193000184551  0378281652000011151           000000120000000000138000000000000000000000000000000000000000000000000000000
5401581193000184551  039391165200000113            000000120000000000102960000000000000000000000000000000000000000000000000000
5401581193000184551  0393911652000002129           000000720000000000520560000000000000000000000000000000000000000000000000000
5401581193000184551  0393911652000003136           000000020000000000069280000000000000000000000000000000000000000000000000000
5401581193000184551  0393911652000004140           000000040000000000121400000000000000000000000000000000000000000000000000000
5401581193000184551  0393911652000005149           000000060000000000065040000000000000000000000000000000000000000000000000000
5401581193000184551  0393911652000006150           000000240000000000193200000000000000000000000000000000000000000000000000000
5401581193000184551  0393911652000007153           000000020000000000076360000000000000000000000000000000000000000000000000000
5401581193000184551  0393911652000008154           000000030000000000087630000000000000000000000000000000000000000000000000000
5401581193000184551  0393911652000009156           000000030000000000216480000000000000000000000000000000000000000000000000000
5401581193000184551  0393911652000010233           000000020000000000057140000000000000000000000000000000000000000000000000000
5401581193000184551  0393911652000011296           000000040000000000142560000000000000000000000000000000000000000000000000000
5401581193000184551  0393911652000012299           000000020000000000075100000000000000000000000000000000000000000000000000000
5403903500000121551  0069181652000001177           000000170000000000102000000000000000000000000000000000000000000000000000000
5433337122020233553  02695416520000011             000050000000000005452500000000000000000000000000000000000000000000000000000
5433337122020233553  02695416520000024             000050000000000010786500000000000000000000000000000000000000000000000000000
5433337122020233553  02695416520000034             000050000000000010811500000000000000000000000000000000000000000000000000000
5433337122020233553  02703116520000011             000050000000000005452500000000000000000000000000000000000000000000000000000
5433337122020233553  02703116520000022             000050000000000008835000000000000000000000000000000000000000000000000000000
5433337122020233553  02703116520000034             000050000000000010811500000000000000000000000000000000000000000000000000000
5433337122020233553  02715216520000014             000050000000000010811500000000000000000000000000000000000000000000000000000
5433337122020233553  02717716520000011             000100000000000010915000000000000000000000000000000000000000000000000000000
5433337122020233553  02724016520000011             000050000000000005457500000000000000000000000000000000000000000000000000000
5433337122020233553  02724016520000024             000050000000000010786500000000000000000000000000000000000000000000000000000
5433337122020233553  02724016520000034             000050000000000010811500000000000000000000000000000000000000000000000000000
5433337122020233553  02736716520000011             000100000000000010915000000000000000000000000000000000000000000000000000000
5433337122020233553  02736716520000024             000050000000000010811500000000000000000000000000000000000000000000000000000
5433337122020233553  02749416520000014             000050000000000010811500000000000000000000000000000000000000000000000000000
5433337122020233553  02749416520000021             000050000000000005457500000000000000000000000000000000000000000000000000000
5433337122020233553  02760916520000012             000050000000000008835000000000000000000000000000000000000000000000000000000
5433337122020233553  02760916520000024             000050000000000011065500000000000000000000000000000000000000000000000000000
5433337122020233553  02760916520000031             000050000000000005818000000000000000000000000000000000000000000000000000000
5433337122020233553  02764616520000011             000050000000000005818000000000000000000000000000000000000000000000000000000
5433337122020233553  02767116520000011             000050000000000005818000000000000000000000000000000000000000000000000000000
5433337122020233553  02767116520000024             000050000000000011040500000000000000000000000000000000000000000000000000000
5433337122020233553  02767116520000034             000050000000000011065500000000000000000000000000000000000000000000000000000
5433337122020233553  02777316520000011             000050000000000005965000000000000000000000000000000000000000000000000000000
5433337122020233553  02777316520000024             000050000000000011078000000000000000000000000000000000000000000000000000000
5433337122020233553  02777316520000034             000050000000000011103000000000000000000000000000000000000000000000000000000
5433337122020233553  02788116520000011             000100000000000011930000000000000000000000000000000000000000000000000000000
5433337122020233553  02788116520000024             000050000000000011103000000000000000000000000000000000000000000000000000000
5433337122020233553  02798416520000011             000050000000000005965000000000000000000000000000000000000000000000000000000
5433337122020233553  02798416520000022             000050000000000008835000000000000000000000000000000000000000000000000000000
5433337122020233553  02798416520000034             000050000000000011103000000000000000000000000000000000000000000000000000000
5433337122020233553  02812916520000011             000100000000000011930000000000000000000000000000000000000000000000000000000
5433337122020233553  02812916520000024             000050000000000011103000000000000000000000000000000000000000000000000000000
5433337122020233553  02819416520000011             000050000000000005965000000000000000000000000000000000000000000000000000000
5433337122020233553  02819416520000024             000050000000000011078000000000000000000000000000000000000000000000000000000
5433337122020233553  02819416520000034             000050000000000011103000000000000000000000000000000000000000000000000000000
5433337122020233553  02830816520000011             000050000000000005965000000000000000000000000000000000000000000000000000000
5433337122020233553  02830816520000022             000050000000000008835000000000000000000000000000000000000000000000000000000
5433337122020233553  02830816520000034             000050000000000011103000000000000000000000000000000000000000000000000000000
5433337122020233553  02842716520000011             000100000000000011930000000000000000000000000000000000000000000000000000000
5433337122020233553  02842716520000024             000050000000000011103000000000000000000000000000000000000000000000000000000
5433337122020233553  02853716520000011             000050000000000005965000000000000000000000000000000000000000000000000000000
5433337122020233553  02853716520000024             000050000000000011078000000000000000000000000000000000000000000000000000000
5433337122020233553  02853716520000034             000050000000000011103000000000000000000000000000000000000000000000000000000
5433337122020233553  02864116520000011             000100000000000011930000000000000000000000000000000000000000000000000000000
5433337122020233553  02864116520000024             000050000000000011103000000000000000000000000000000000000000000000000000000
5433337122020233553  02866216520000012             000050000000000008835000000000000000000000000000000000000000000000000000000
5433337122020233553  02882016520000011             000050000000000005965000000000000000000000000000000000000000000000000000000
5433337122020233553  02882016520000024             000050000000000011103000000000000000000000000000000000000000000000000000000
5433337122020233553  02882016520000034             000050000000000011078000000000000000000000000000000000000000000000000000000
5433337122020233553  02887816520000011             000100000000000011930000000000000000000000000000000000000000000000000000000
5433337122020233553  02887816520000024             000050000000000011103000000000000000000000000000000000000000000000000000000
5433337122020233553  02897716520000011             000050000000000005980000000000000000000000000000000000000000000000000000000
5433337122020233553  02897716520000024             000050000000000011103000000000000000000000000000000000000000000000000000000
5433337122020233553  02897716520000034             000050000000000011078000000000000000000000000000000000000000000000000000000
5433337122020233553  02907416520000011             000100000000000011960000000000000000000000000000000000000000000000000000000
5433337122020233553  02907416520000022             000050000000000008835000000000000000000000000000000000000000000000000000000
5433337122020233553  02918316520000011             000050000000000005980000000000000000000000000000000000000000000000000000000
5433337122020233553  02918316520000024             000050000000000011103000000000000000000000000000000000000000000000000000000
5433337122020233553  02918316520000034             000050000000000011078000000000000000000000000000000000000000000000000000000
5433337122020233553  02924516520000011             000050000000000005980000000000000000000000000000000000000000000000000000000
5433337122020233553  02928616520000011             000050000000000005980000000000000000000000000000000000000000000000000000000
5433337122020233553  02928616520000024             000050000000000011103000000000000000000000000000000000000000000000000000000
5433337122020233553  02928616520000034             000050000000000011078000000000000000000000000000000000000000000000000000000
5433337122020233553  02933616520000014             000050000000000011103000000000000000000000000000000000000000000000000000000
5433337122020233553  02942516520000011             000050000000000005980000000000000000000000000000000000000000000000000000000
5433337122020233553  02942516520000022             000050000000000008835000000000000000000000000000000000000000000000000000000
5433337122020233553  02942516520000034             000050000000000011103000000000000000000000000000000000000000000000000000000
5433337122020233553  02949716520000011             000100000000000011960000000000000000000000000000000000000000000000000000000
5433337122020233553  02949716520000024             000050000000000011123000000000000000000000000000000000000000000000000000000
5433337122020233553  02962716520000011             000050000000000005980000000000000000000000000000000000000000000000000000000
5433337122020233553  02962716520000024             000050000000000011123000000000000000000000000000000000000000000000000000000
5433337122020233553  02962716520000034             000050000000000011098000000000000000000000000000000000000000000000000000000
5433337122020233553  2447711652000001241           000002400000000001759200000000000000000000000000000000000000000000000000000
5433337122020233553  2459021652000001293           000002400000000003912000000000000000000000000000000000000000000000000000000
5433337122020233553  2459151652000001284           000002400000000004188000000000000000000000000000000000000000000000000000000
5473581753000101552  018633165200000148            000000030000000000098970000000000000000000000000000000000000000000000000000
5473581753000101552  0186331652000002294           000000030000000000097500000000000000000000000000000000000000000000000000000
5473581753000101552  0187051652000001297           000000030000000000074940000000000000000000000000000000000000000000000000000
5473581753000101552  0190781652000001205           000000600000000000594000000000000000000000000000000000000000000000000000000
5473581753000101552  0190781652000002298           000000010000000000059990000000000000000000000000000000000000000000000000000
7520100801201008311                     ETANOL HIDRATADO COMBUSTÍVEL COMUM                   LT    000000000000000000000000000
752010080120100831102                   C 2496                                               UN    000001700000000000000000000
752010080120100831103                   C 2585                                               UN    000001700000000000000000000
752010080120100831106                   C 2969                                               UN    000001700000000000000000000
752010080120100831114                   C 15300                                              UN    000001700000000000000000000
752010080120100831127                   HU 711/51X                                           UN    000001700000000000000000000
752010080120100831129                   W7 MULTI 18                                          UN    000001700000000000000000000
75201008012010083113                    CERA GRAND PRIX                                      UN    000000000000000000000000000
752010080120100831134                   W711/80                                              UN    000001700000000000000000000
752010080120100831136                   W1323                                                UN    000001700000000000000000000
752010080120100831140                   WP928/81                                             UN    000001700000000000000000000
752010080120100831149                   WK 712/4                                             UN    000001700000000000000000000
752010080120100831150                   WK 58                                                UN    000001700000000000000000000
752010080120100831151                   WK 730/4                                             UN    000001700000000000000000000
752010080120100831153                   WK 842/14                                            UN    000001700000000000000000000
752010080120100831154                   WK 842/3                                             UN    000001700000000000000000000
752010080120100831156                   WK 940/35                                            UN    000001700000000000000000000
752010080120100831177                   EXTINTOR                                             UN    000000000000000000000000000
7520100801201008312                     ÓLEO DIESEL B ADITIVADO                              LT    000000000000000000000000000
752010080120100831205                   ARMOX FLU                                            UN    000000000000000000000000000
752010080120100831233                   C3221                                                UN    000001700000000000000000000
752010080120100831241                   BRUTUS T5 15W40                                      UN    000000000000000000000000000
752010080120100831284                   F1 MASTER SINTETICO 5W40SM                           UN    000000000000000000000000000
752010080120100831293                   F1 MASTER SINTÉTICO 5W 30                            UN    000000000000000000000000000
752010080120100831294                   JFA 587                                              UN    000001700000000000000000000
752010080120100831295                   C 2680                                               UN    000001700000000000000000000
752010080120100831296                   C 23121/2                                            UN    000001700000000000000000000
752010080120100831297                   CA8069                                               UN    000001700000000000000000000
752010080120100831298                   CA 4685                                              UN    000001700000000000000000000
752010080120100831299                   W 719/50                                             UN    000001700000000000000000000
7520100801201008314                     GASOLINA SUPER ADITIVADA                             LT    000000000000000000000000000
75201008012010083148                    CAK 5722                                             UN    000001700000000000000000000
75201008012010083195                    C 14200                                              UN    000001700000000000000000000
9025124074000160102015732     5000000040540000010460000000007000000000710000000075000000339900000180                         1
