1025124074000160102015732     VALPOSTO COMBUSTIVEIS LTDA         GOIANIA                       GO62394595462010060120100630331
11Alameda Ricardo Paranhos          00504.                     ST Marista     74175020.                           006239459546
5033337122020233101427310     20100601GO553  0217731652T000000271985000000000000000000000000000000000000000000000000000000000N
503333712201418780203314      20100601RJ553  2245992652T000000033816500000000000000000000000000000000000000000000000000000000N
5033337122020233101427310     20100602GO553  0218271652T000000219095000000000000000000000000000000000000000000000000000000000N
5033337122020233101427310     20100604GO553  0219661652T000000272235000000000000000000000000000000000000000000000000000000000N
503333712201418780203314      20100604RJ553  2217842652T000000042539700000000000000000000000000000000000000000000000000000000N
5033337122020233101427310     20100605GO553  0221171652T000000252210000000000000000000000000000000000000000000000000000000000N
5033337122020233101427310     20100607GO553  0222351652T000000055235000000000000000000000000000000000000000000000000000000000N
5033337122020233101427310     20100607GO553  0222361652T000000108375000000000000000000000000000000000000000000000000000000000N
5033337122020233101427310     20100607GO553  0222371652T000000108625000000000000000000000000000000000000000000000000000000000N
5033337122020233101427310     20100608GO553  0222711652T000000055235000000000000000000000000000000000000000000000000000000000N
5033337122020233101427310     20100609GO553  0223581652T000000219095000000000000000000000000000000000000000000000000000000000N
5033337122020233101427310     20100610GO553  0224781652T000000247580000000000000000000000000000000000000000000000000000000000N
5033337122020233101427310     20100611GO553  0225711652T000000158980000000000000000000000000000000000000000000000000000000000N
5033337122020233101427310     20100611GO553  0225721652T000000107240000000000000000000000000000000000000000000000000000000000N
5033337122020233101427310     20100612GO553  0226411652T000000051990000000000000000000000000000000000000000000000000000000000N
5033337122020233101427310     20100614GO553  0227371652T000000106990000000000000000000000000000000000000000000000000000000000N
5033337122020233101427310     20100614GO553  0227381652T000000159230000000000000000000000000000000000000000000000000000000000N
5033337122020233101427310     20100615GO553  0228831652T000000247580000000000000000000000000000000000000000000000000000000000N
503333712201418780203314      20100615RJ553  2265922652T000000007779100000000000000000000000000000000000000000000000000000000N
5033337122020233101427310     20100616GO553  0229601652T000000211220000000000000000000000000000000000000000000000000000000000N
5033337122020233101427310     20100617GO553  0230911652T000000159230000000000000000000000000000000000000000000000000000000000N
5033337122020233101427310     20100618GO553  0231651652T000000051990000000000000000000000000000000000000000000000000000000000N
5033337122020233101427310     20100619GO553  0232991652T000000247580000000000000000000000000000000000000000000000000000000000N
5033337122020233101427310     20100621GO553  0233221652T000000266220000000000000000000000000000000000000000000000000000000000N
5033337122020233101427310     20100622GO553  0234111652T000000158980000000000000000000000000000000000000000000000000000000000N
5033337122020233101427310     20100622GO553  0234121652T000000107240000000000000000000000000000000000000000000000000000000000N
5001581193000184102881480     20100622GO551  0342341652T000000003837600000000000000000000000000000000000000000000000000000000N
5001581193000184102881480     20100622GO551  0339551652T000000009622800000000000000000000000000000000000000000000000000000000N
5033337122020233101427310     20100623GO553  0235181652T000000051990000000000000000000000000000000000000000000000000000000000N
5033337122020233101427310     20100624GO553  0236001652T000000247580000000000000000000000000000000000000000000000000000000000N
5033337122020233101427310     20100625GO553  0237081652T000000266220000000000000000000000000000000000000000000000000000000000N
5033337122020233101427310     20100626GO553  0238241652T000000051990000000000000000000000000000000000000000000000000000000000N
5033337122020233101427310     20100628GO553  0239181652T000000266220000000000000000000000000000000000000000000000000000000000N
5033337122020233101427310     20100629GO553  0239911652T000000211220000000000000000000000000000000000000000000000000000000000N
5033337122020233101427310     20100630GO553  0241151652T000000247580000000000000000000000000000000000000000000000000000000000N
5073581753000101102615608     20100630GO552  0171261652T000000031587000000000000000000000000000000000000000000000000000000000N
5001581193000184102881480     20100630GO551  0350001652T000000020638400000000000000000000000000000000000000000000000000000000N
5401581193000184551  0339551652000001140           000000030000000000091080000000000000000000000000000000000000000000000000000
5401581193000184551  0339551652000002143           000000120000000000161400000000000000000000000000000000000000000000000000000
5401581193000184551  0339551652000003181           000000010000000000030120000000000000000000000000000000000000000000000000000
5401581193000184551  03395516520000046             000000360000000000414780000000000000000000000000000000000000000000000000000
5401581193000184551  03395516520000057             000000240000000000191460000000000000000000000000000000000000000000000000000
5401581193000184551  0339551652000006114           000000030000000000073440000000000000000000000000000000000000000000000000000
5401581193000184551  0342341652000001138           000000120000000000229200000000000000000000000000000000000000000000000000000
5401581193000184551  0342341652000002206           000000120000000000154560000000000000000000000000000000000000000000000000000
5401581193000184551  0350001652000001107           000000060000000000055680000000000000000000000000000000000000000000000000000
5401581193000184551  0350001652000002130           000000960000000000790080000000000000000000000000000000000000000000000000000
5401581193000184551  0350001652000003136           000000030000000000103920000000000000000000000000000000000000000000000000000
5401581193000184551  0350001652000004140           000000030000000000091080000000000000000000000000000000000000000000000000000
5401581193000184551  0350001652000005146           000000720000000000615600000000000000000000000000000000000000000000000000000
5401581193000184551  0350001652000006182           000000020000000000063100000000000000000000000000000000000000000000000000000
5401581193000184551  0350001652000007286           000000020000000000058540000000000000000000000000000000000000000000000000000
5401581193000184551  0350001652000008290           000000030000000000054000000000000000000000000000000000000000000000000000000
5401581193000184551  0350001652000009291           000000240000000000231840000000000000000000000000000000000000000000000000000
5433337122014187553  2217842652000001192           000002400000000002455050000000000000000000000000000000000000000000000000000
5433337122014187553  2217842652000002224           000001200000000001798920000000000000000000000000000000000000000000000000000
5433337122014187553  2245992652000001210           000004800000000003381650000000000000000000000000000000000000000000000000000
5433337122014187553  2265922652000001211           000001200000000000777910000000000000000000000000000000000000000000000000000
5433337122020233553  02177316520000011             000050000000000005523500000000000000000000000000000000000000000000000000000
5433337122020233553  02177316520000024             000100000000000021675000000000000000000000000000000000000000000000000000000
5433337122020233553  02182716520000011             000100000000000011047000000000000000000000000000000000000000000000000000000
5433337122020233553  02182716520000024             000050000000000010862500000000000000000000000000000000000000000000000000000
5433337122020233553  02196616520000011             000050000000000005523500000000000000000000000000000000000000000000000000000
5433337122020233553  02196616520000024             000050000000000010862500000000000000000000000000000000000000000000000000000
5433337122020233553  02196616520000034             000050000000000010837500000000000000000000000000000000000000000000000000000
5433337122020233553  02211716520000011             000050000000000005523500000000000000000000000000000000000000000000000000000
5433337122020233553  02211716520000022             000050000000000008835000000000000000000000000000000000000000000000000000000
5433337122020233553  02211716520000034             000050000000000010862500000000000000000000000000000000000000000000000000000
5433337122020233553  02223516520000011             000050000000000005523500000000000000000000000000000000000000000000000000000
5433337122020233553  02223616520000014             000050000000000010837500000000000000000000000000000000000000000000000000000
5433337122020233553  02223716520000014             000050000000000010862500000000000000000000000000000000000000000000000000000
5433337122020233553  02227116520000011             000050000000000005523500000000000000000000000000000000000000000000000000000
5433337122020233553  02235816520000011             000100000000000011047000000000000000000000000000000000000000000000000000000
5433337122020233553  02235816520000024             000050000000000010862500000000000000000000000000000000000000000000000000000
5433337122020233553  02247816520000011             000050000000000005199000000000000000000000000000000000000000000000000000000
5433337122020233553  02247816520000022             000050000000000008835000000000000000000000000000000000000000000000000000000
5433337122020233553  02247816520000034             000050000000000010724000000000000000000000000000000000000000000000000000000
5433337122020233553  02257116520000011             000050000000000005199000000000000000000000000000000000000000000000000000000
5433337122020233553  02257116520000024             000050000000000010699000000000000000000000000000000000000000000000000000000
5433337122020233553  02257216520000014             000050000000000010724000000000000000000000000000000000000000000000000000000
5433337122020233553  02264116520000011             000050000000000005199000000000000000000000000000000000000000000000000000000
5433337122020233553  02273716520000014             000050000000000010699000000000000000000000000000000000000000000000000000000
5433337122020233553  02273816520000014             000050000000000010724000000000000000000000000000000000000000000000000000000
5433337122020233553  02273816520000021             000050000000000005199000000000000000000000000000000000000000000000000000000
5433337122020233553  02288316520000011             000050000000000005199000000000000000000000000000000000000000000000000000000
5433337122020233553  02288316520000022             000050000000000008835000000000000000000000000000000000000000000000000000000
5433337122020233553  02288316520000034             000050000000000010724000000000000000000000000000000000000000000000000000000
5433337122020233553  02296016520000011             000100000000000010398000000000000000000000000000000000000000000000000000000
5433337122020233553  02296016520000024             000050000000000010724000000000000000000000000000000000000000000000000000000
5433337122020233553  02309116520000011             000050000000000005199000000000000000000000000000000000000000000000000000000
5433337122020233553  02309116520000024             000050000000000010724000000000000000000000000000000000000000000000000000000
5433337122020233553  02316516520000011             000050000000000005199000000000000000000000000000000000000000000000000000000
5433337122020233553  02329916520000011             000050000000000005199000000000000000000000000000000000000000000000000000000
5433337122020233553  02329916520000022             000050000000000008835000000000000000000000000000000000000000000000000000000
5433337122020233553  02329916520000034             000050000000000010724000000000000000000000000000000000000000000000000000000
5433337122020233553  02332216520000011             000050000000000005199000000000000000000000000000000000000000000000000000000
5433337122020233553  02332216520000024             000050000000000010724000000000000000000000000000000000000000000000000000000
5433337122020233553  02332216520000034             000050000000000010699000000000000000000000000000000000000000000000000000000
5433337122020233553  02341116520000011             000050000000000005199000000000000000000000000000000000000000000000000000000
5433337122020233553  02341116520000024             000050000000000010699000000000000000000000000000000000000000000000000000000
5433337122020233553  02341216520000014             000050000000000010724000000000000000000000000000000000000000000000000000000
5433337122020233553  02351816520000011             000050000000000005199000000000000000000000000000000000000000000000000000000
5433337122020233553  02360016520000011             000050000000000005199000000000000000000000000000000000000000000000000000000
5433337122020233553  02360016520000022             000050000000000008835000000000000000000000000000000000000000000000000000000
5433337122020233553  02360016520000034             000050000000000010724000000000000000000000000000000000000000000000000000000
5433337122020233553  02370816520000011             000050000000000005199000000000000000000000000000000000000000000000000000000
5433337122020233553  02370816520000024             000050000000000010724000000000000000000000000000000000000000000000000000000
5433337122020233553  02370816520000034             000050000000000010699000000000000000000000000000000000000000000000000000000
5433337122020233553  02382416520000011             000050000000000005199000000000000000000000000000000000000000000000000000000
5433337122020233553  02391816520000011             000050000000000005199000000000000000000000000000000000000000000000000000000
5433337122020233553  02391816520000024             000050000000000010724000000000000000000000000000000000000000000000000000000
5433337122020233553  02391816520000034             000050000000000010699000000000000000000000000000000000000000000000000000000
5433337122020233553  02399116520000011             000100000000000010398000000000000000000000000000000000000000000000000000000
5433337122020233553  02399116520000024             000050000000000010724000000000000000000000000000000000000000000000000000000
5433337122020233553  02411516520000011             000050000000000005199000000000000000000000000000000000000000000000000000000
5433337122020233553  02411516520000022             000050000000000008835000000000000000000000000000000000000000000000000000000
5433337122020233553  02411516520000034             000050000000000010724000000000000000000000000000000000000000000000000000000
5473581753000101552  017126165200000119            000000480000000000590360000000000000000000000000000000000000000000000000000
5473581753000101552  017126165200000232            000002880000000002568340000000000000000000000000000000000000000000000000000
7520100601201006301                     ETANOL HIDRATADO COMBUSTÍVEL COMUM                   LT    000000000000000000000000000
752010060120100630107                   C 2990                                               UN    000001700000000000000000000
752010060120100630114                   C 15300                                              UN    000001700000000000000000000
752010060120100630130                   W7 MULTI 3/4D                                        UN    000001700000000000000000000
752010060120100630136                   W1323                                                UN    000001700000000000000000000
752010060120100630138                   W68/80                                               UN    000001700000000000000000000
752010060120100630140                   WP928/81                                             UN    000001700000000000000000000
752010060120100630143                   W75/2                                                UN    000001700000000000000000000
752010060120100630146                   W6 MULTI 20                                          UN    000001700000000000000000000
752010060120100630181                   C32338/1                                             UN    000001700000000000000000000
752010060120100630182                   WK 920/1                                             UN    000001700000000000000000000
75201006012010063019                    HAV. SEMI-SINTETICO LT                               UN    000000000000000000000000000
752010060120100630192                   F1 MASTER PLUS 10W 30                                UN    000000000000000000000000000
7520100601201006302                     ÓLEO DIESEL B ADITIVADO                              LT    000000000000000000000000000
752010060120100630206                   HU 611X                                              UN    000001700000000000000000000
752010060120100630210                   F1 MASTER SL 20W 50 LT                               UN    000000000000000000000000000
752010060120100630211                   F1 SUPER 20W40LT                                     UN    000000000000000000000000000
752010060120100630224                   F1 MASTER SINTETICO 10W40                            UN    000000000000000000000000000
752010060120100630286                   C 3324                                               un    000001700000000000000000000
752010060120100630290                   HU 612X                                              UN    000001700000000000000000000
752010060120100630291                   W 712/53                                             UN    000001700000000000000000000
75201006012010063032                    URSA PREMIO TDX LT                                   UN    000000000000000000000000000
7520100601201006304                     GASOLINA SUPER ADITIVADA                             LT    000000000000000000000000000
7520100601201006306                     GLADE AUTO SPORT APARELHO                            UN    000001700000000000000000000
7520100601201006307                     GLADE REFIL                                          UN    000001700000000000000000000
9025124074000160102015732     5000000037540000008260000000007000000000710000000075000000259900000147                         1
